:020000040800F2
:100000007814002015020008C910000883090008B0
:10001000C510000819050008B91700080000000005
:10002000000000000000000000000000270200089F
:100030001D050008000000002B020008AD16000896
:100040002F0200082F0200082F0200082F020008CC
:100050002F0200082F0200082F0200082F020008BC
:100060002F0200082F0200082F0200082F020008AC
:100070002F0200082F0200082F0200082F0200089C
:100080002F0200082F0200082F0200082F0200088C
:100090002F0200082F0200082F0200082F0200087C
:1000A0002F0200082F0200082F0200082F0200086C
:1000B0002F0200082F020008911700082F020008E5
:1000C0002F0200082F0200082F0200082F0200084C
:1000D0002F0200082F0200082F0200082F0200083C
:1000E0002F0200082F0200082F0200082F0200082C
:1000F0002F0200082F0200082F0200082F0200081C
:100100002F0200082F0200082F0200082F0200080B
:100110002F0200082F0200082F0200082F020008FB
:100120002F0200082F0200082F0200082F020008EB
:1001300000F002F800F05FF80AA090E8000C82449A
:100140008344AAF10107DA4501D100F054F8AFF277
:10015000090EBAE80F0013F0010F18BFFB1A43F0A5
:10016000010318477C2E00009C2E00000A444FF02B
:10017000000C10F8013B13F0070408BF10F8014B06
:100180001D1108BF10F8015B641E05D010F8016B4B
:10019000641E01F8016BF9D113F0080F1EBF10F8AF
:1001A000014BAD1C0C1B09D16D1E58BF01F801CBD2
:1001B000FAD505E014F8016B01F8016B6D1EF9D555
:1001C0009142D6D37047000000230024002500266A
:1001D000103A28BF78C1FBD8520728BF30C148BFAA
:1001E0000B607047642900F08B80002070471FB5BA
:1001F0001FBD10B510BD00F051F91146FFF7F7FF14
:1002000001F078FF00F06FF903B4FFF7F2FF03BCD1
:1002100001F0D4FA0948804709480047FEE7FEE7A5
:10022000FEE7FEE7FEE7FEE7FEE7FEE7FEE7FEE7A6
:1002300004480549054A064B70470000BD160008F2
:1002400031010008780E002078140020781000207A
:1002500078100020704700000FB4044910B503AABD
:10026000029800F005F910BC5DF814FB1C0000209A
:100270000FB41CB5074B06AA7B446946009005984D
:1002800000F0DDF80020694600F0ECF81CBC5DF8D9
:1002900014FB0000E90100002DE9F0410E46044680
:1002A000002020622046E168884730B3252805D029
:1002B000D4E901219047206A401CF2E7E16820461A
:1002C00000278847050018D0A5F14100192802D859
:1002D00020354FF400673246294620462760FFF755
:1002E00081FF40B1012804D0F61D26F0070608362C
:1002F000D8E7361DD6E72846DAE7206ABDE8F08160
:100300002DE9F0410646002410687529314616A5EE
:1003100010D0AFF30080002802DA404213A507E0B6
:1003200031688A0701D512A502E0490704D511A555
:10033000012401E0AFF3008000210A2206F1240726
:1003400009E0B0FBF2FCB0FBF2F302FB1C00303022
:1003500078541846491C0028F3D123462A463046D3
:10036000BDE8F04100F00CB8000000002D000000D6
:100370002B00000020000000704770477047704756
:100380002DE9F0470D4699469246044600F12408AF
:100390000168880604D5E06921F01001216000E0C1
:1003A0000120A84201DD471B00E00027A1697A195E
:1003B00002EB0900081AA0612078C00602D420468A
:1003C000AFF30080002608E0D4E901211AF8060006
:1003D0009047206A401C761C20624E45F4DB207852
:1003E000C0060AD52046AFF3008006E0D4E901211B
:1003F00030209047206A401C2062381EA7F1010778
:10040000F4DC07E0D4E9012118F805009047206AE0
:10041000401C2062281EA5F10105F3DC2046AFF345
:1004200000802078000602D50220BDE8F087012078
:10043000FBE7000001694A1C02610878704700B5BB
:100440008FB0CDE901310021059105497944CDE90D
:10045000031011466846FFF71FFF0FB000BD0000F4
:10046000E5FFFFFF0A6802F8010B0A607047000011
:10047000074B70B50D467B44FFF7E1FF0446284665
:1004800000F008F810B14FF0FF3070BD204670BD8D
:100490007B160000007B00F080007047754600F07E
:1004A0002BF8AE4605006946534620F00700854606
:1004B00018B020B5FFF7BCFEBDE820404FF00006A5
:1004C0004FF000074FF000084FF0000B21F007013C
:1004D000AC46ACE8C009ACE8C009ACE8C009ACE87F
:1004E000C0098D46704710B50446AFF30080204622
:1004F000BDE81040FFF788BE00487047140E00208A
:10050000044A00E0491C12F8013B002BFAD1481EB6
:1005100070470000F80C002000BFFEE77047002184
:1005200007E042F6E06100BF0A1EA1F1010399B2A3
:10053000FAD1021EA0F10100F3D1704710B5104CA2
:10054000B4F1807F01D3012011E024F07F40401EF0
:100550004FF0E02148610F214FF0FF3000F02EFFF7
:1005600000204FF0E0218861072008610020012869
:1005700001D100BFFEE70221242001F0CFF810BD19
:1005800040190100044A116800BF034A1268521A58
:100590008242FAD370470000140000200D49086021
:1005A00000210D4A11800C492439098841F00101CC
:1005B000094A243A118000BF064909680029FBD185
:1005C00005492439098821F00101034A243A1180A0
:1005D0007047000018000020240800402DE9FE4369
:1005E00006460F46904699460A9D002450E028781A
:1005F000A0282BDD002422E0EB2E01D900261037A5
:100600002878264911F81410884217D168780121FA
:1006100001EB4401214A515C88420FD1102120484E
:10062000202303FB0400CDE900014B464246029122
:100630003946304601F0A4FF103604E0641C00F097
:1006400005F9A042D8D800BFAD1C21E0E62E01D9A3
:1006500000261037002415E028781249095D8842E9
:100660000FD108211022104802FB04004B46CDE9AF
:100670000121009042463946304601F081FF08369C
:1006800004E0641CFFF73CFFA042E5D800BF6D1CEE
:1006900028780028ABD1BDE8FE830000560D00206D
:1006A00020000020F80C0020280700202DE9FE4340
:1006B00006460F46904699460A9D00242EE028786B
:1006C000A0282BDD002423E0EB2E01D900262037C3
:1006D0002878154911F81410884218D1687801213A
:1006E00001EB4401104A515C884210D120211E22A6
:1006F0000E48782303FB04004B46CDE9012100900E
:1007000042463946304601F03BFF1E3604E0641C89
:1007100000F09CF8A042D7D800BFAD1C2878002874
:10072000CDD1BDE8FE830000560D00202000002042
:1007300051B18200A2F1C042126842F0010382006E
:10074000A2F1C042136009E08200A2F1C042126827
:10075000034B1A408300A3F1C0431A6070470000A6
:10076000FEFF0F00D0E901121143C2681143026974
:1007700011434269114382691143C2691143026AFC
:100780001143426A1143826A1143C26A1143026BE8
:10079000114302689200A2F1C042116081680829E9
:1007A0000BD101688900A1F1C041096841F0400204
:1007B00001688900A1F1C0410A60416B0968426B80
:1007C000526841EA0211426B926841EA0221426B8F
:1007D000928941EA0241426B128A41EA0251426B1C
:1007E000127D41EA0261426B926911430268521C18
:1007F0009200A2F1C0421160C16AB1F5804F1BD1D5
:10080000816B0968826B526841EA0211826B9268BF
:1008100041EA0221826B128A41EA0251826B127D07
:1008200041EA0261826B9269114302689200A2F16F
:10083000C042C2F8041107E06FF0704201688900FD
:10084000A1F1C041C1F8042170470000044900E053
:10085000521C11F8013B002BFAD1500870470000E0
:10086000560D00202DE9F04102460025002600200B
:1008700000230024002791F803C00CF00F0591F825
:1008800003C00CF0100CBCF1000F03D091F802C0B3
:100890004CEA050591F800C0BCF1000F31D0146896
:1008A00000202BE04FF0010C0CFA00F3B1F800C06F
:1008B0000CEA03069E4220D183004FF00F0C0CFA85
:1008C00003F7BC4305FA03FC4CEA040491F803C0A7
:1008D000BCF1280F06D14FF0010C0CFA00FCC2F855
:1008E00014C00AE091F803C0BCF1480F05D14FF0E5
:1008F000010C0CFA00FCC2F810C0401C0828D1D32F
:100900001460B1F800C0BCF1FF0F34DD5468002062
:100910002EE000F1080C4FF0010808FA0CF3B1F8D2
:1009200000C00CEA03069E4221D183004FF00F0C59
:100930000CFA03F7BC4305FA03FC4CEA040491F8F3
:1009400003C0BCF1280F05D100F1080C08FA0CF81F
:10095000C2F8148091F803C0BCF1480F07D100F130
:10096000080C4FF0010808FA0CF8C2F81080401C7F
:100970000828CED35460BDE8F08141617047016121
:10098000704700BFFEE7000070B504460026094826
:100990000588408845430021084600F0F3F900F03F
:1009A0001DFA00BF02E004480480761CAE42FAD370
:1009B00070BD0000080E00200008006C10B5012179
:1009C0000148FFF7DCFF10BD000C014010B50446E4
:1009D00044BB002020498871F02008804FF4A070AB
:1009E00048800846808849F24131884205D01A483B
:1009F000808846F60401884229D12C201649C87106
:100A00002A2008722B2048720846808846F6040186
:100A100088421CD14FF4A0700F4908804FF4F07049
:100A2000488014E001200C4988714FF4A0700880C0
:100A3000F02048800846808849F24131884206D13A
:100A40002C200549C8712A2008722B2048720020EA
:100A500000F0E0F810BD0000080E002070B505465B
:100A60000E4614463146284600F08CF900F0B6F9DF
:100A70000148048070BD00000008006C00B59DB006
:100A80000121080200F0AEFC01200090002001903E
:100A90000F2002900020039004900590069007908C
:100AA00008900320099000200A900B900C900D9064
:100AB00006200E9000200F9008201090102011901A
:100AC00000201290149015901390169018901A9080
:100AD0004FF48050179080001990CDF86CD007A883
:100AE0001C900EA8FFF73EFE01210620FFF720FE16
:100AF0001DB000BD08B50121084600F093FC01219E
:100B00004FF4B47000F08EFC10208DF80300032029
:100B10008DF802000120ADF8000069461B48FFF780
:100B2000A1FE03208DF8020018208DF803004CF27E
:100B30000370ADF8000069461548FFF793FE4FF6C5
:100B40008070ADF8000069461248FFF78BFE102058
:100B5000ADF8000069460E48FFF784FE2020ADF88E
:100B6000000069460A48FFF77DFE4FF48050ADF85B
:100B7000000069460848FFF775FE0120ADF8000047
:100B800069460548FFF76EFE08BD0000000C0140F5
:100B900000140140001801400020014010B5FFF78B
:100BA000A9FFFFF76BFF00F02BF9FFF707FF01200C
:100BB000FFF70CFF45F25840FFF7E6FE10BD2DE9A8
:100BC000F04706460F4690469946DDF820A0344689
:100BD0000AE03D4605E0A9B2A0B25246FFF73EFF4B
:100BE0006D1C4D45F7DB641C4445F2DBBDE8F08726
:100BF00001480088704700000008006C10B50446EA
:100C0000204600F0E5F80520FFF7C8FCFFF7F0FFED
:100C100010BD000070B504460023002658488079B6
:100C200001281ED15648808846F60401884218D013
:100C3000082C15D2DFE804F00406080A0C0E101286
:100C400006240DE007240BE0042409E0052407E056
:100C5000012405E0002403E0032401E0022400BF96
:100C600000BF4748808849F24131884205D0444856
:100C7000808846F6040188427DD1082C1CD2DFE82A
:100C800004F00406090C0F12151800BF14E043F01D
:100C9000800311E043F040030EE043F0C0030BE09B
:100CA00043F0200308E043F0600305E043F0A003B5
:100CB00002E043F0E00300BF00BF362643F0080324
:100CC0002F48808846F60401884201D143F0020390
:100CD0001946304600F08CF803F0200018B9284877
:100CE000807901280DD12648008825494988884205
:100CF00014DA234805884088214908800846458041
:100D00000CE01F4800881E494988884206DD1C48BF
:100D1000058840881A490880084645801849087A9D
:100D200000F056F8002000F04DF8002000F04AF8DE
:100D300013490988491EC1F30F2000F043F81049F8
:100D40000978491EC8B200F03DF80D49487A00F014
:100D50003FF8002000F036F8002000F033F8084992
:100D60004988491EC1F30F2000F02CF80449897806
:100D7000491EC8B200E001E000F024F870BD000098
:100D8000080E002000B502460B460D48808849F247
:100D90004131884213D10A49087A00F019F810123B
:100DA00000F010F8D0B200F00DF80549487A00F0D4
:100DB0000FF8181200F006F8D8B200F003F800BDE2
:100DC000080E002001490880704700000008006CF0
:100DD0000149088070470000FE07006C0248C07996
:100DE0000249088070470000080E0020FE07006CD2
:100DF000024A1080921C118070470000FE07006CB0
:100E000010B53220FFF78BFB01210020FFF7F0FF28
:100E10003220FFF784FB0020FFF7F0FEA84988800E
:100E200008468088FF280ADB084680884FF6FF7155
:100E3000884204D0A2488088B0F5134F22D1D32035
:100E4000FFF7C6FFFFF7D4FEFFF7D2FEFFF7D0FE95
:100E50009B498880084680884FF6FF7101EA002090
:100E600097498880FFF7C4FE9549898808439449CB
:100E700088800846808849F24131884202D008467D
:100E80008F4988808E48808849F2413188427CD1E0
:100E9000CF20FFF79DFF0020FFF794FFC120FFF751
:100EA00091FF3020FFF78EFFED20FFF791FF6420C8
:100EB000FFF788FF0320FFF785FF1220FFF782FF6F
:100EC0008120FFF77FFFE820FFF782FF8520FFF7F3
:100ED00079FF1020FFF776FF7A20FFF773FFCB2012
:100EE000FFF776FF3920FFF76DFF2C20FFF76AFF31
:100EF0000020FFF767FF3420FFF764FF0220FFF7B1
:100F000061FFF720FFF764FF2020FFF75BFFEA2077
:100F1000FFF75EFF0020FFF755FF0020FFF752FFAD
:100F2000C020FFF755FF1B20FFF74CFFC120FFF744
:100F30004FFF0120FFF746FFC520FFF749FF302094
:100F4000FFF740FF3020FFF73DFFC720FFF740FFCE
:100F5000B720FFF737FF3620FFF73AFF4820FFF7AB
:100F600031FF3A20FFF734FF5520FFF72BFFB12068
:100F7000FFF72EFF0020FFF725FF1A20FFF722FFC3
:100F8000B620FFF725FF0A2000E097E0FFF71AFFE1
:100F9000A220FFF717FFF220FFF71AFF0020FFF74C
:100FA00011FF2620FFF714FF0120FFF70BFFE020C1
:100FB000FFF70EFF0F20FFF705FF2A20FFF702FFC4
:100FC0002820FFF7FFFE0820FFF7FCFE0E20FFF7AA
:100FD000F9FE0820FFF7F6FE5420FFF7F3FEA920E4
:100FE000FFF7F0FE4320FFF7EDFE0A20FFF7EAFED1
:100FF0000F20FFF7E7FE0020FFF7E4FE0020FFF7D9
:10100000E1FE0020FFF7DEFE0020FFF7DBFEE1201F
:10101000FFF7DEFE0020FFF7D5FE1520FFF7D2FE1A
:101020001720FFF7CFFE0720FFF7CCFE1120FFF7B8
:10103000C9FE0620FFF7C6FE2B20FFF7C3FE562091
:10104000FFF7C0FE3C20FFF7BDFE0520FFF7BAFE0C
:101050001020FFF7B7FE0F20FFF7B4FE3F20FFF789
:10106000B1FE3F20FFF7AEFE0F20FFF7ABFE2B20B7
:10107000FFF7AEFE0020FFF7A5FE0020FFF7A2FE5F
:101080000120FFF79FFE3F20FFF79CFE2A20FFF77D
:101090009FFE0020FFF796FE0020FFF793FE002042
:1010A000FFF790FEEF20FFF78DFE1120FFF790FE77
:1010B0007820FFF734FA2920FFF78AFE10BD0000E0
:1010C000080E002000BFFEE7704700001CB511A10C
:1010D00003C9CDE90001082000F028FA052269467D
:1010E000302000F035F905226946102000F07EF826
:1010F000002406E01DF80400A52800D003E0601CD1
:10110000C4B2052CF6DB00BF052C01D001201CBDAC
:101110000020FCE7A5A5A5A5A500000000B587B0A7
:101120000121082000F07EF90121080200F07AF97F
:10113000C020ADF8180010208DF81B0003208DF89A
:101140001A0006A92548FFF78DFBC0212348FFF7A9
:1011500014FC4FF48070ADF8180028208DF81B00A7
:1011600003208DF81A0006A91C48FFF77BFB4FF4FB
:1011700080711A48FFF701FC00F064F9002118485B
:1011800000F0E8F90020ADF804004FF48270ADF8EB
:1011900006000020ADF80800ADF80A00ADF80C001C
:1011A0004FF40070ADF80E001820ADF810000020CC
:1011B000ADF812000720ADF8140001A9084800F0AE
:1011C000E3F90121064800F0C5F90020054908604F
:1011D00001200549C1F89C0107B000BD0020014075
:1011E0000038004098012442000024422DE9F041DB
:1011F00007460D46164600200A490860384600F0AA
:101200006BF98046002405E0FF2000F065F92855C1
:10121000601CC4B2B442F7DB0120024908604046BA
:10122000BDE8F0819C01244270B5044600200749C6
:101230000860204600F050F9FF2000F04DF9054607
:1012400001200349C1F89C01284670BD9C0124423D
:101250000000244210B500201449086005221449FA
:10126000302000F075F8052212492A2000F070F8AD
:101270000121212000F08AF80121222000F086F8C7
:101280001A21242000F082F82821252000F07EF881
:101290000F21262000F07AF80E21202000F076F8A9
:1012A00001200549C1F8980110BD000098012442B1
:1012B000D62F0008DB2F00080000244270B5054639
:1012C000082000F033F90020174908602022294641
:1012D000A02000F03DF801201449C1F8980100BF9A
:1012E0001148783800680028FAD10720FFF79CFFE2
:1012F00004462146272000F049F804F0100040B1D0
:10130000FF21E12000F042F809A0FEF7A5FF102020
:1013100070BD04F0200020B10AA0FEF79DFF202040
:10132000F6E7FF20F4E70000980124420000244281
:10133000B4EFB5BDD7EEB4F3D6D8B7A2B4CECAFDDC
:101340000D0A0000B7A2CBCDCDEAB3C90D0A00004B
:101350002DE9F04107460C46154600200A49086071
:10136000384600F0B9F88046002605E014F8010B75
:1013700000F0B2F8701CC6B2AE42F7DB01200249A1
:1013800008604046BDE8F0819C01244270B50546E6
:101390000C46002007490860284600F09DF80646E4
:1013A000204600F099F801200349C1F89C0130461D
:1013B00070BD00009C0124420000244210B50028AA
:1013C00007DA0A07140E054A00F00F031B1FD45456
:1013D00003E00A07130E024A135410BD18ED00E093
:1013E00000E400E029B1064A52690243044B5A6105
:1013F00004E0034A52698243014B5A61704700007E
:101400000010024029B1064AD2690243044BDA6156
:1014100004E0034AD2698243014BDA61704700005D
:101420000010024029B1064A92690243044B9A61B6
:1014300004E0034A92698243014B9A6170470000BD
:101440000010024000B587B001210820FFF7EAFF35
:1014500001218803FFF7D6FF4FF46040ADF8180074
:1014600018208DF81B0003208DF81A0006A91848D3
:10147000FFF7F8F94FF460411548FFF780FA0020B4
:10148000ADF804004FF48270ADF806000020ADF80E
:1014900008000220ADF80A000120ADF80C0040025F
:1014A000ADF80E003820ADF810000020ADF81200A5
:1014B0000720ADF8140001A9064800F065F80121E5
:1014C000044800F047F8FF2000F006F807B000BD20
:1014D000000C01400038004070B50546002405E0CE
:1014E000601CC4B2C82C01DD002070BD02210E4872
:1014F00000F03CF80028F3D029460B4800F042F8F1
:10150000002405E0601CC4B2C82C01DD0020ECE71B
:101510000121054800F02AF80028F3D0024800F025
:101520002EF8C0B2E1E700000038004010B50446D4
:10153000074800884FF6C7710840054908800846EB
:101540000088204308800121014800F003F810BD05
:101550000038004021B1028842F04002028004E0DD
:1015600002884FF6BF731A4002807047024600207F
:1015700013890B400BB1012000E0002070470146A9
:10158000888970478181704710B50022028802F473
:1015900041520B884C8823438C882343CC882343B7
:1015A0000C8923434C8923438C892343CC892343CF
:1015B0001A430280838B4FF2FF74234083830B8A8C
:1015C000038210BD10B500F001F810BD0CB500206D
:1015D000019000903348006840F480303149086041
:1015E00000BF3048006800F4003000900198401CB3
:1015F0000190009818B90198B0F5A06FF1D1294871
:10160000006800F4003010B10120009001E00020DB
:1016100000900098012843D12348006840F0100052
:10162000214908600846006820F003000860084669
:10163000006840F0020008601A4840681949486094
:101640000846406848600846406840F4806048604A
:101650000846406820F47C1048600846406840F422
:10166000E81048600846006840F08070086000BFDD
:101670000C48006800F000700028F9D00948406864
:1016800020F00300074948600846406840F0020027
:10169000486000BF0348406800F00C000828F9D1FA
:1016A0000CBD00000010024000200240024800680B
:1016B000401C0149086070471400002010B5134811
:1016C000006840F001001149086008464068104970
:1016D00008400E494860084600680E4908400B491A
:1016E00008600846006820F48020086008464068CA
:1016F00020F4FE0048604FF41F008860FFF762FF8F
:101700004FF000600449086010BD00000010024066
:101710000000FFF8FFFFF6FE08ED00E070B504469C
:101720000D461948C06940F004001749C8610020FF
:1017300016490880601E091D0880681E091D088062
:10174000002012492439088010481838008840F0D9
:1017500001000E49183908800F211E20FFF72EFEC8
:101760001E20012181404209920002F1E022C2F8CC
:10177000001100BF05482438008820F0010003490B
:101780002439088070BD0000001002402408004089
:101790000748008820F001000549088005480068D6
:1017A00020B104480068401E0249086070470000EC
:1017B000100800401800002000BFFEE700BF70477F
:1017C0000C48806940F008000A4988610A480068AE
:1017D00020F00F00084908600846006840F001004A
:1017E000086005480830006820F48070024908311C
:1017F0000860704700100240040C01404FF47A70FA
:10180000214989680144214A1268914205D2204940
:10181000096841F020011E4A11601B4949690144D1
:101820001A4A1268914205D21A49096841F020010A
:10183000184A11601449096A0144144A1268914215
:1018400005D21549096841F02001134A11600E497B
:10185000C96A01440D4A1268914205D20E490968CD
:1018600041F040010C4A116008490A680B490968B7
:1018700001F5FA718A4205D90549096821F4807198
:10188000034A116070470000780D0020140000200A
:101890000C0C01400C1801400C080140080000200D
:1018A0000C48806940F004000A4988610A480068D1
:1018B00020F07040084908600846006840F08050F9
:1018C000086005480C30006840F0800002490C3187
:1018D000086070470010024000080140F0B587B072
:1018E00006465048006820F080004E49086044F2E7
:1018F0005060FEF753FE4B48006840F080004949B5
:1019000008601420FEF74AFE00F084FC0A2403E07D
:101910000A20FEF743FE641E4248001F006800F0E4
:10192000800008B9002CF3DC0A2403E00A20FEF74B
:1019300035FE641E3B48001F006800F080008028D0
:1019400001D1002CF2DC00253AE0002735E00A2422
:1019500003E00A20FEF722FE641E3248001F0068E2
:1019600000F0800008B9002CF3DC1C20FEF716FE06
:101970002C48001F006800F08000802807D101A8D3
:10198000405D012101EB400001A9485505E001A897
:10199000405D4006000E01A948550A2403E00A20D4
:1019A000FEF7FCFD641E1F48001F006800F0800069
:1019B000802801D1002CF2DC7F1C082FC7DB6D1CB6
:1019C000052DC2DB00F044FC1648006840F08000A2
:1019D000144908609DF804009DF8051008449DF81E
:1019E000061008449DF8071008449DF80810884226
:1019F0000CD19DF8040005909DF8050006909DF817
:101A0000060003909DF80700049004E00020059074
:101A100006900390049003A80FC886E80F0007B053
:101A2000F0BD00000C08014000B5A7B023480068D5
:101A3000A0F5FA602249096888423DDD1F48006828
:101A40001F4908601D481FA1026803A8FEF710FC8B
:101A500003A8002345F258425A2100901846FEF789
:101A6000BDFD23A8FFF73AFF259828B3DDE925013E
:101A7000CDE9000116A103A8DDE92323FEF7F8FB59
:101A800003A8002345F25842322100901846FEF781
:101A9000A5FD14492398096888420DDD07480168AF
:101AA0001148C1621148006840F480700F49086015
:101AB000024800680E49086027B000BD14000020ED
:101AC0000C00002072756E74696D653A2564000023
:101AD00074656D703A25642E25642C72683A25640D
:101AE0002E25640000000020780D00200C0C014021
:101AF0000800002000BF054A128802F04002002AB8
:101B0000F9D0C2B2014B1B1D1A807047003801404A
:101B100010B53748806940F04C0035498861354838
:101B2000006820F47000334908600846006840F4FB
:101B3000801008600846006820F070600860084661
:101B4000006840F0807008602B48006820F4700046
:101B5000294908600846006840F48010086027485A
:101B6000006820F47000254908600846006840F4C9
:101B70008010086020480C30006840F020001E49AA
:101B80000C3108601D480C30006840F020001B49F3
:101B90000C31086017480C30006840F020001549EF
:101BA0000C3108600846006840F04000086014A14D
:101BB000154800F06BFB15A113480C3000F066FBD4
:101BC00014A11148183000F061FB14A10E48243014
:101BD00000F05CFB002007E0002100EB40020A4B14
:101BE00003EB82025171401C0428F5DB10BD00009C
:101BF0000010024000080140000C014000180140A4
:101C00004C45443100000000780D00204C45443222
:101C1000000000004C454433000000004C454434B3
:101C20000000000010B53548806940F04400334999
:101C300088613348006820F00F0031490860084689
:101C4000006840F0040008602E48006820F470200E
:101C50002C4908600846006840F480200860084667
:101C6000006820F4704008600846006840F4804036
:101C700008600846006820F4706008600846006844
:101C800040F480600860002021E0002100EB400269
:101C90001D4B03EBC202917100EB400203EBC20249
:101CA000517100EB400203EBC202D16000EB400235
:101CB00003EBC202116100EB400203EBC202D171DF
:101CC000012100EB400203EBC2025161401C0428D9
:101CD000DBDB0EA10C4800F0D9FA0DA10A48183040
:101CE00000F0D4FA0BA10848303000F0CFFA0AA176
:101CF0000548483000F0CAFA10BD0000001002404C
:101D00000008014000180140A80D002053320000D7
:101D100053330000533400005335000000B5A1B028
:101D200000F0BEFAB848C079002860D00020B6495B
:101D3000C871B648006820F02000B4490860B44873
:101D40000068B449886045F258402023C822002129
:101D500000900846FEF733FFAB480069B0F57A7F84
:101D600039D8A948406901281DD1ABA0002345F20C
:101D70005842194600901846FEF798FCA94800689A
:101D8000401DA84908600846A7A1026801A8FEF7FF
:101D90006FFA01A8002345F25842462100901846E8
:101DA000FEF71CFC20E098484069022809D1A2A057
:101DB000002345F25842194600901846FEF776FC7B
:101DC00012E0A0A0002345F25842194600901846A0
:101DD000FEF76CFC08E09EA0002345F2584219462D
:101DE00000901846FEF762FC01208749486186484A
:101DF000C07F00284CD000218348C17797480068F5
:101E000020F02000954908608148016881484161BF
:101E100045F258402023C822002100900846FEF7D2
:101E2000CEFE7948806AB0F57A7F25D87648C06AB8
:101E3000012809D18AA0002345F258421946009092
:101E40001846FEF733FC20E06F48C06A022809D12B
:101E500086A0002345F25842194600901846FEF726
:101E600025FC12E084A0002345F258421946009058
:101E70001846FEF71BFC08E082A0002345F25842FA
:101E8000194600901846FEF711FC01215E48C16218
:101E90005D4890F83700002861D000215A4880F84A
:101EA00037107B48006820F02000794908605848C6
:101EB00001685848016245F258402023C822002199
:101EC00000900846FEF77BFE4F48006CB0F57A7F25
:101ED00039D84D48406C01281DD16EA0002345F231
:101EE0005842194600901846FEF7E0FB4D4800683E
:101EF000401F4C49086008464BA1026801A8FEF744
:101F0000B7F901A8002345F258424621009018462F
:101F1000FEF764FB20E03C48406C022809D160A039
:101F2000002345F25842194600901846FEF7BEFBC2
:101F300012E05EA0002345F2584219460090184670
:101F4000FEF7B4FB08E05CA0002345F258421946B6
:101F500000901846FEF7AAFB01212B4841642A484D
:101F600090F84F0000284DD00021274880F84F10EE
:101F70004748006820F0400045490860244801684F
:101F80002448C16245F258402023C8220021009015
:101F90000846FEF714FE1C48806DB0F57A7F25D800
:101FA0001948C06D012809D146A0002345F25842C6
:101FB000194600901846FEF779FB20E01248C06DE4
:101FC000022809D142A0002345F258421946009048
:101FD0001846FEF76BFB12E040A0002345F2584282
:101FE000194600901846FEF761FB08E03EA000236A
:101FF00045F25842194600901846FEF757FB01215A
:102000000148C16521B000BDA80D00200C0C0140A5
:1020100014000020780D0020B0B4BCFCD2BBB5A5E4
:10202000BBF7000000000020616C61726D54656DAB
:10203000704D61783A256400B0B4BCFCD2BBCBAB28
:10204000BBF70000B0B4BCFCD2BBB6E0BBF70000ED
:10205000B0B4BCFCD2BBB3A4B0B400000C180140B7
:10206000B0B4BCFCB6FEB5A5BBF70000B0B4BCFC78
:10207000B6FECBABBBF70000B0B4BCFCB6FEB6E01E
:10208000BBF70000B0B4BCFCB6FEB3A4B0B4000013
:102090000C080140B0B4BCFCC8FDB5A5BBF70000FE
:1020A000B0B4BCFCC8FDCBABBBF70000B0B4BCFC0B
:1020B000C8FDB6E0BBF70000B0B4BCFCC8FDB3A4DB
:1020C000B0B40000B0B4BCFCCBC4B5A5BBF70000F5
:1020D000B0B4BCFCCBC4CBABBBF70000B0B4BCFC11
:1020E000CBC4B6E0BBF70000B0B4BCFCCBC4B3A417
:1020F000B0B40000A2B01C2031490860FEF71EFAFF
:102100004FF4E131482000F077FAFFF7C9FBFFF701
:10211000FFFCFFF755FBFFF785FDFEF73FFDFEF7E0
:10212000FDFF002406E0641C26A0FEF795F864205D
:10213000FEF728FAFEF7CAFF08B1642CF3DBFFF7BD
:1021400089F825A0002345F25842C8210090962026
:10215000FEF7ACFA1A4822A1026802A8FEF788F836
:1021600002A8002345F25842462100901846FEF787
:1021700035FA4FF47A70FEF705FA1D4800681D49DC
:1021800008601B4800681C4908601CA0FEF764F842
:1021900014E017480068A0F57A701749096888426A
:1021A00006DD19A0FFF78AF8114800681249086097
:1021B000FFF73AFCFFF7B2FDFFF720FBE9E700006D
:1021C000000000204E524632344C303120457272AD
:1021D0006F720D0A00000000BAFAC7EFB7E5000001
:1021E000616C61726D54656D704D61783A25640063
:1021F000140000200C00002010000020B3F5CABC21
:10220000BBAF4F4B210D0A00C4E3BAC3A3A1A3A1E6
:10221000A3A100000C48806940F004000A498861CD
:102220000A48006820F070400849086008460068C5
:1022300040F00040086005480C30006840F0800025
:1022400002490C310860704700100240000801404C
:102250000C48806940F004000A4988610A48006817
:1022600020F07040084908600846006840F080503F
:10227000086005480C30006840F0800002490C31CD
:1022800008607047001002400008014003E011F8A8
:10229000012B00F8012B0A78002AF8D170470000C2
:1022A000B348006800F00100C8B9B2484079B0B93D
:1022B000B048C06820B9B0480068AE49C8600EE0B8
:1022C000AC48C0680A30AC490968884207D2AA48BD
:1022D0000068A8490861012048710020C860A4482E
:1022E000006800F0010018B3A248407901281FD10E
:1022F000A048C06820B9A04800689E49C86017E09F
:102300009C48C0680A309C490968884210D2002065
:102310009849C8600846006997490968081A9549AC
:102320000861002048710120887193480068886026
:102330009248006800F01000C8B98E48407FB0B9DC
:102340008C48406A20B98C4801688A4841620EE096
:102350008848406A0A3088490968884207D2864816
:1023600001688448816201214177002141628348EC
:10237000006800F01000102823D17E48407F01281B
:102380001FD17C48406A20B97B4801687948416286
:1023900017E07848406A0A3077490968884210D2C5
:1023A000002174484162806A73490968091A7148BA
:1023B000816200214177012181776F4801686D4872
:1023C00001626E48006800F00800D8B9694890F8CA
:1023D0003500B8B96748C06B20B9674801686548DF
:1023E000C1630FE06348C06B0A30634909688842E3
:1023F00008D2614801685F480164012180F8351006
:102400000021C1635D48006800F00800082826D15B
:10241000584890F83500012821D15648C06B20B9A2
:10242000554801685348C16319E05248C06B0A30EF
:1024300051490968884212D200214E48C163006C9C
:102440004D490968091A4B480164002180F835108C
:10245000012180F8361048480168464881634748A2
:10246000006800F0040004281BD1424890F84D0099
:10247000B8B94048406D20B93F4801683D484165C2
:102480000FE03C48406D0A303B490968884208D259
:102490003948016837488165012180F84D100021D5
:1024A00041653648006800F0040030BB314890F8C0
:1024B0004D00012821D12F48406D20B92E480168D8
:1024C0002C48416519E02B48406D0A302A490968BB
:1024D000884212D2002127484165806D264909684B
:1024E000091A24488165002180F84D10012180F8E7
:1024F0004E10214801681F480165002033E000EBC1
:1025000040011C4A02EBC101897901292AD100EB63
:10251000400102EBC10189689631174A1268914265
:1025200020D2002100EB4002124B03EBC20291715A
:1025300000EB40011A4602EBC101497959B100EBA9
:10254000400102EBC1014969491C00EB400203EB69
:10255000C202516106E0012100EB4002054B03EB92
:10256000C202D171401C0428C9DB0520704700005D
:1025700008080140A80D00201400002008180140A0
:102580002DE9FF4F074688469A46DDF83C90002625
:102590002DE0002423E00D9810F801BB0D900025DC
:1025A0001AE00BF0800050B108EB060291B205EB87
:1025B000C4023A4490B25246FEF750FA09E008EBE2
:1025C000060291B205EBC4023A4490B2029AFEF7B9
:1025D00045FA4FEA4B0B6D1C082DE2DB641C4FEAF9
:1025E000E97109EB5171B4EBE10FD4DB761C0E9865
:1025F0008642CEDBBDE8FF8F2DE9F04F85B0044663
:1026000089463148806940F004002F4988610846B6
:10261000806940F4804088612C48006820F47F6025
:102620002A4908600846006840F0B0000860084683
:10263000006840F480600860002025490880084652
:10264000008840F00C0008800020091D08804846E2
:1026500000F0CEF9074600221E4B00F0DDF90546DA
:102660000E461D4904FB01F000F0C2F92A4633462C
:10267000CDE9000100F064F8CDE9020100F02EF888
:102680008246504600F028FB8346584600F044FB43
:102690000746514600F020FC06464FF0834100F00B
:1026A0004FFB054600F018FB0490049800EB0B105C
:1026B0000749091F0880081D008840F40050091DC3
:1026C000088005B0BDE8F08F00100240040801400A
:1026D0000C3801400000304040420F0021F0004221
:1026E000A2F16052B2F5801F01F0004328BFD2F181
:1026F0007F6C0BD95FEA001C43EAC20242EB5070C8
:1027000018BF704728BF20F001007047B2F5801F46
:10271000BCBF184670474FEA410C1CF5001F02D29F
:10272000084600F0D4BB70B500F020FA0000008924
:10273000FFF7F6BF4FF00040A0F5800070470000A3
:102740002DE9C04130B4DFF8A0C23CEA111418BF33
:102750003CEA131400F0EC8081EA03051CEA111432
:1027600044EAD57418BF1CEA131500F0C780A4EB27
:1027700005044FF0004545EAC12145EAC32341EA7B
:10278000505143EA525304F17F74994204F50034E6
:102790004FEAC0204FEAC22208BF904200F09C805E
:1027A0004FEA13650FF24016765D4FEA134506FBBC
:1027B00005F7C7F1807706FB07F74FEAD737A7FB86
:1027C00003687642C8F58038A7FB06CE38BFA8F16B
:1027D000010807FB08E64FF0000EA6FB028CE6FBA3
:1027E00003CEDCF1000CCEF1004E38BFAEF1010E8D
:1027F000A6FB0C584FF000074FF00005E6FB0E87D4
:10280000A1FB08C6A0FB07CE16EB0E0645F100059E
:10281000E1FB076515F1E04E7EBFA4F580345FEA69
:1028200046066D4116F1800745F100054FEA17276E
:102830004FEA066647EA0567A6F1DE46B6F1805F15
:102840004FEA15251FD9384624F0010C05EBC47159
:10285000BCF1FE6F01EB0C1102D8F0BCBDE80081A9
:1028600024425CBF01F5801E9EEAC47F02D4F0BC06
:10287000BDE80081244238D4F0BCA1F1C041BDE8DC
:10288000004100F0C1B94FEAD22242EA43524FEA76
:10289000D323A7FB02864FEAD02040EA415007FB32
:1028A00003661EEA0E0F4FEAD12105FB026658BFF0
:1028B000A6EB0056B6EB00564FEA520E4EEAC37E28
:1028C00018EB0E0E56EB530EBDD518EB02085E4109
:1028D0007F1C55F10005B6E74FF480154FF0000757
:1028E0004FF000064FF00008ADE7F0BC4FF00000DD
:1028F00001F1C04101F00041BDE8008111EA0C1F67
:102900000CEA131500D00CE013EA0C1F00F0258030
:102910004FF00000F0BC81EA030101F00041BDE886
:102920000081F0BCBDE8004181EA030100F06CB910
:10293000F0BCBDE8004170B500F018F9097EFC3E1E
:1029400000F007B881EA03014FF0000001F00041F8
:10295000704781EA030100F057B9F0BCBDE80041BF
:102960004FF0000021497047FFFDFBF9F7F5F4F245
:10297000F0EEEDEBE9E8E6E4E3E1E0DEDDDBDAD81A
:10298000D7D5D4D3D1D0CFCDCCCBCAC8C7C6C5C478
:10299000C2C1C0BFBEBDBCBBBAB9B8B7B6B5B4B38F
:1029A000B2B1B0AFAEADACABAAA9A8A8A7A6A5A47A
:1029B000A3A3A2A1A09F9F9E9D9C9C9B9A9999983E
:1029C0009797969595949393929191908F8F8E8EE1
:1029D0008D8C8C8B8B8A898988888787868585846E
:1029E00084838382828181800000FF070000F87F5A
:1029F000B0FA80F310FA03F10AD0C3F11D0303F516
:102A000080634FEA41504FEA035202EBD1217047F5
:102A10004FF0000070470000DFF848C170B51CEAB5
:102A2000111E1EBF1CEA13159EEA0C0F95EA0C0F2F
:102A300000F06F8081EA030423EA4C134EEAD47E4F
:102A400021EA4C1141F4801143F48013AE44A1FB00
:102A5000024CA0FB0365AEF17F7E361955EB0C05E9
:102A6000A1FB034C4CF10003A0FB021C16EB0C066F
:102A7000654153F10003094218BF46F0010613F403
:102A8000007F0BD14FEA03314FEA0530340341EAAE
:102A9000155140EA16506FF003020AE04FEAC321D5
:102AA0004FEAC520F40241EA555140EA56506FF012
:102AB000020202EB2E4201EB025585EACE710AD0EA
:102AC0005FEA440C18BF24F0004450F1000041F1CB
:102AD000000120EAD47040F2FE7C624500D270BD55
:102AE000A84214BF4FF080444FF04044002E08BF6E
:102AF0000024BEF1806FA8BFA1F1C041BDE87040C5
:102B000080F282804FF0000001F1C04101F00041ED
:102B100070479EEA0C0F0CEA131518BF95EA0C0FCC
:102B200006D04FF0000081EA030E0EF0004170BDA8
:102B300000F01CF88900013E00F007B800F009B869
:102B40004FEA430C5FEA5C5C08D081EA030100F0C5
:102B50005BB84FEA410C5FEA5C5CF6D14FF00000D5
:102B6000014970470000FF070000F87F0EF1020ED8
:102B70002EF0030E5EF8046B364205D4012A43EBB7
:102B8000030515F5001F12D8012841EB010C1CF5B7
:102B9000001F0CD80ED14FEAD17C15F5001F0CEBAD
:102BA0004C0C0CF1020C08BF4CEBD37C04E04FF052
:102BB000080C01E04FEAD37C0CEB4C0526FA05F635
:102BC00006F00706B6F1040C06D20EEB860CBDE843
:102BD00070404CF0010C6047DFE80CF0090B02027A
:102BE0004FF000414FF00000A1F5002170BD1946E3
:102BF0001046012851EB010418BFD4F5001484BF1E
:102C0000002001F0004170BD0808A0F500114FEA56
:102C10003101704790EA010F48BF81F0004100F197
:102C20006C81421A3CBF801A89184FEAD0524FF08B
:102C30007F4C1CEA410FA2EBD15318BF9CEA026FF4
:102C400000F03B804FF0004C4CEA00204CEA0121A0
:102C500021FA03FC10EB0C0C1ED202F1FF325FEAEA
:102C60001C2040EBC25038BF70471CF07F0F4FEA6A
:102C7000400C18BFBCF17F4F38BF7047C3F1200331
:102C8000994008BF20F00100BCF17F4F38BF70476A
:102C9000A0F1C04000F01BB94FEA3C00000A40EB35
:102CA000C25028BF1CF0FF0F4FEA400CE6D018BFFF
:102CB000BCF17F4F38BF7047EAE79CEA026F05D04E
:102CC00010EA5C0F08BF00F00040704710B500F03C
:102CD000B8F800BF64FBBE3EC10DD1F19E0206DB19
:102CE0004FEA002343F0004323FA02F0704700420A
:102CF00007D54FEA4001B1F1FE4F02D24FF000007C
:102D0000704710B500F09DF849922480002070476C
:102D10006FEA200070470000B0FA80F310FA03F267
:102D2000C3F19D030AD0D90501EB1220530638BF29
:102D3000704700F1010008BF20F00100704700005B
:102D40004FF47F0C1CEAD0121EBF1CEAD11392EA8A
:102D50000C0F93EA0C0F00F0478090EA010F48BF78
:102D600042F480724FF0004C4CEA00204CEA012102
:102D700002EB0302A0FB0113A2F50002002918BF19
:102D800043F001035B0028BF4FEA330342EB2242CA
:102D90005FEA132C4CEBC2502EBFBCEB436FB2F575
:102DA0007C0F70474FEA036CBCF1004F08BF20F066
:102DB0000100B2F57C0F38BF70470BD582F0FF02DF
:102DC00012F5803FC8BF704700F1C040D8BF00F087
:102DD0000040704700F5000C5FEA4C0C48BF70479C
:102DE000B0F1C04000F073B890EA010F0CEAD113C3
:102DF00048BF42F48072624538BF634504D280EA1E
:102E0000010000F00040704710B500F01AF800BF54
:102E10008900013E00F007B800F009B85FEA410CF4
:102E20005FEA1C6C08D080EA010000F050B85FEA4D
:102E3000400C5FEA1C6CF6D14FF00040A0F580001A
:102E400070470EF1020E2EF0030E5EF8044B244282
:102E500004D44FEA4102B2F17F4F11D84FEA400348
:102E6000B3F17F4F0CD80ED14FEAD07CB2F17F4F37
:102E70000CEB4C0C0CF1020C08BF4CEBD17C04E0C9
:102E80004FF0080C01E04FEAD17C0CEB4C0324FA24
:102E900003F404F00704B4F1040C06D20EEB840C26
:102EA000BDE810404CF0010C6047DFE80CF007086B
:102EB00002024FF00040A0F5800010BD084642001D
:102EC00018BFD2F1807288BF00F0004010BDFF2112
:102ED00041EAD050C005704780F0004090EA010FF1
:102EE0007FF59FAE81F0004100F007B890EA010F36
:102EF00048BF81F000413FF594AE421A04D882F0F9
:102F00000042A0EB020011444FEAD0524FF07F4C38
:102F10001CEA410FA2EBD15318BF9CEA026F4AD0C2
:102F20004FF0004C4CEA00204CEA012121FA03FC4E
:102F3000B0EB0C0C0FD412F0FE0F36D05FEA4C0051
:102F40001DD5001240EBC25038BF70471CF03F0F38
:102F500018BF70470BE0A2F101025FEA1C2040EBB2
:102F6000C25038BF70471CF07F0F18BF7047C3F1C5
:102F70002003994014BF401E20F0010070478008D4
:102F80004FEA122308BF7047B0FA80FCA2EB0C0294
:102F9000CCF1280C60FA0CF093EA122F04BF00EB7E
:102FA000C25070474FEAC3707047130A5FEADC10E3
:102FB00008BF7047F6E79CEA026F04D010EA5C0F86
:102FC00008BF0020704710B5FFF73BFF40DFF63E1B
:102FD00081F0004070473443101001344310100258
:102FE0000030000800000020780D00006C0100088F
:102FF00038370008780D002000070000C8010008DD
:1030000001241B01C004280BE0C06001C0FFF001D7
:10301000C0E004280BE001CEE0E03FFFE0E0390C27
:1030200039045AFF08680DE0E01DDCE0E01FFEE017
:10303000E01E1C048AFF0C3F1DC0E01FFDC00810ED
:103040000D1E1F80E01E0380E01C070FE01A0E0417
:10305000141C01E02A386EB123387813FC78140769
:10306000F8781C3FC0788C39041015C001C1F8E015
:1030700001DDF9F07FFFFBC031C3FB8003C3FF1408
:1030800003C7FE2B03EF2C127C1407FC7C2A0F04D1
:1030900013DC7E141DD8EE1419C0E71A3104101386
:1030A00061C1C78041C3C38001C383C001C701F0B0
:1030B00001CE14F801FCC47001F012E0140780F096
:1030C000180C0781E1800701FFC00703C30416C77E
:1030D000803F7767143F7E7E143F7C3C143F783EF0
:1030E000280F3F707FC03F71E3F83F73BCF03F7E15
:1030F0001418093CE03F77FFF03F700C2904100BD7
:10310000F03CC03FF7FFE03E713C1538603C702456
:103110001FFFF8323CA904D238140380E01C03C01E
:1031200070084A3804381486387003E7FFF87FFEC9
:1031300040F0039E70E0039EF0C0241AB004101704
:10314000E1C06003FFFFF00F93C3803F8383807F64
:103150008787803B87071C038F0F04128E1C038117
:10316000FE441A3E0410113F8003807FE00381F18A
:10317000E03F87C0F00F3FE47007701206120C1298
:103180000F4A0E021033030EC01EFFFFE01FF76E42
:10319000E01C0E0EF0380FFFF831CECEE07FFC0EB3
:1031A000E06E1D8EE0CE3FFFE00E1BEEE00E038EC4
:1031B000E00EC3FFF07FF3EE1B3E37381D3F0E706D
:1031C0000EE4140E1FCE140E6E0E1B0FCE04139FB2
:1031D0008E140F3BEC000B150671FFF801E03FF079
:1031E00003801BE03FC83338070913041AC0041AD0
:1031F000F0041A7E041A1F04130F801B070704191A
:103200004E1B070104091638D90401360759E07F1F
:10321000FFFFF83000083A03800FFFFFC00622E0EE
:103220000B2801F0A400081D01C01FFFFFE00C29BE
:103230008E120F061E07FFFF80033260091B7C22DF
:103240001C3970CC1E3CF0040A1D38041B70E004CD
:1032500019081AF03C16E07FE01FC01CE01F800434
:1032600019F05A1E043958590C196892E023C018F5
:1032700023703C1A7804233870133C603C0618E332
:10328000D02C070707041179048BFFFF0C49105954
:1032900024311A07E04A07E04A20100914040114F7
:1032A000120C1BC03FA015180FC1E0141EE1C01086
:1032B0001C1CE1C0181C61C00C3C61C0063863C016
:1032C0000338738003F8738001F0338023F03F19D3
:1032D000041B01F80413FC1E1403BC1E14071E1E5D
:1032E000140F1E3F10110E0E77801C0EE3C030012C
:1032F000C3E0600781F81A0EE819EDD139885A80C9
:103300000469101C01C01F800A140CB41B70FFD488
:103310001A600C1C060703F81B03C00419F40914F7
:1033200004160FFFFF80061A035D6904A11401C093
:103330000C1C01E01E0819BC1BC07C0412F81A0109
:10334000F31401C3C01B01C7201ADE0412F8144095
:1033500001C02FE07FFFFFF031142AC3041A802838
:10336000192429041BC0F0041A78041A3E103011E5
:10337000DF8001CF8FF001FE07F801F801E001F0D6
:10338000F2C05A03F0320F1A1E90143FFFC0177894
:1033900007C001FC0F1403DE1E140F0E3C1C1C0E94
:1033A000F8244AE0281A3F6413FBC010091FC780A5
:1033B000C0381FFFE01A3E561B78033016078007FF
:1033C000CE0F1C0E0F1E4C1A3C2C59341A0F341AF7
:1033D0007E67197C8A3FEE4C182442015324185C06
:1033E00010701001527C1A3C1B1F0404081020426C
:1033F0003C491050090418040202424438180B04D6
:103400000C14242444447E04046F318F7E404040D9
:103410005864202B1C241089604E7E4444080861A7
:1034200079603A248519AB69904E261A020224402D
:103430004924561E2242423F3AC0601924936458E0
:103440001B1C221553221C2D060202022E9C422612
:103450001B40199659609E0F1110107EE0411E3ED0
:103460004444384089292229601B5C62405342E76A
:103470002330309A70301B0C0C703A04015B447896
:103480003050084E4850684844EE492CC9602BFE25
:10349000490192ED9ADC6049A0290149A0412AD84E
:1034A000E075447840E039D075221E02071CEE32E8
:1034B00020018AF8C06E42403C024270197A39807D
:1034C00019A9712AC65F93463B9008E74224242835
:1034D00010109008D79292AAAA4444C8086E2418E3
:1034E00018182476306C1810109058087E44081074
:1034F00010227E6E6F182828243C44D01EF84444C5
:1035000044780E4B4244A02D3E424280015C42442E
:10351000382039ED7920B80CFC42484878484840BA
:103520004242FC105A40FE1C3C44443E5C8E8444A3
:10353000402AE73C2A7E05497049EC29014A7C7003
:103540007A08013388F0500CEE44485070504848D7
:103550004444EE1AE05A39015342FE1BEE6C012A34
:10356000540152D6500CC7626252524A4A4A4646E9
:10357000E24C3844820159802AFC7B2A7C4149A0D4
:1035800059206EB2CA4C3806202A7C6F4B42E39019
:1035900018084242402018040216516BFE92B0995E
:1035A000D039016A3C1050094424242828181010EE
:1035B0001BD692015FAAAA6C44444420480A2424E2
:1035C000181818242442E7C09D4444282850E00CD1
:1035D0007E840408081020204242FCCD606020C098
:1035E00010818B18180651497A3C101020063901B9
:1035F0005920E945C5123624482A027D390125089B
:103600000804022B40200A2901194E22402B0304F2
:10361000013A08061B040350492C49331260492B18
:10362000890119411B402043294E1C040402511CEE
:1036300001020240294E1B204050212D3C42426293
:103640007669C0190C196A3B20107F31490B391576
:10365000210410304C431D38445AAA0155B4424449
:10366000382808242424FE4848480441300F1038E4
:10367000545450301814145454381010300C44A4BE
:10368000A8A8A8541A2A2A2A4403101C221A30393E
:103690006008506EA4948889763F1010D63838D6CA
:1036A0003C011082FFB27F19EE2B10FE05915AFEED
:1036B00004310A126047997D105D3132333435365A
:1036C0003738396162636465666768696A6B6C6D17
:1036D0006E6F707172737475767778797A41424340
:1036E0004445464748494A4B4C4D4E4F5051525322
:1036F0005455565758595A2C2E3A3B2127222829DF
:103700007B7D7C5C2F3F3C3E7E402324255E262A29
:103710005F2D2B3D6020401FBAFAC7EFB7E5B0B46C
:10372000BCFCCFC2D2BBB6FEC8FDCBC4B5A5CBABEB
:08373000BBF7B3A4B6E00000F2
:0400000508000131BD
:00000001FF
