:020000040800F2
:10000000B0130020DD010008072B0008FD250008C3
:10001000052B0008F9090008193500080000000048
:100020000000000000000000000000004501000882
:10003000FB0900080000000089010008212E0008CB
:10004000F7010008F7010008F7010008F7010008B0
:10005000F7010008F7010008F7010008F7010008A0
:10006000F7010008F7010008F7010008F701000890
:10007000F7010008F7010008F7010008F701000880
:10008000F7010008F7010008F7010008F701000870
:10009000F7010008F7010008F7010008FD09000852
:1000A000F7010008112F0008F7010008F701000808
:1000B0001D2F0008292F0008352F0008F701000820
:1000C000F7010008F7010008F7010008F701000830
:1000D000F7010008D9340008E5340008F7010008EA
:1000E000F7010008F7010008F7010008F701000810
:1000F000F7010008F7010008F7010008F701000800
:10010000F7010008F7010008412F0008F701000877
:10011000F7010008F7010008F7010008F7010008DF
:10012000F7010008F7010008F7010008F7010008CF
:10013000DFF80CD000F0CEFB00480047AD3F0008D0
:10014000B0130020224B19680868B0E8F00F80F364
:100150000988BFF36F8F4FF0000080F311884EF0D5
:100160000D0E70470000000006480068006880F32C
:10017000088862B661B6BFF34F8FBFF36F8F00DFA1
:1001800000BF00BF08ED00E0EFF30980BFF36F8F01
:100190000F4B1A6820E9F00F106008B54FF05000BF
:1001A00080F31188BFF34F8FBFF36F8F04F0DAFA3B
:1001B0004FF0000080F31188BDE808401968086816
:1001C000B0E8F00F80F30988BFF36F8F704700BF6E
:1001D00040000020EFF3058070470000064880478C
:1001E00006480047FEE7FEE7FEE7FEE7FEE7FEE71C
:1001F000FEE7FEE7FEE7FEE7C92E00083101000832
:10020000202A04DB203A21FA02F00021704721FA6B
:1002100002F3D040C2F120029140084319467047D2
:1002200040EA01039B0703D009E008C9121F08C078
:10023000042AFAD203E011F8013B00F8013B521EF8
:10024000F9D27047D2B201E000F8012B491EFBD26F
:1002500070470022F6E710B513460A4604461946D1
:10026000FFF7F0FF204610BD80EA010210B502F052
:100270000043400022D04A001FD0010E01EB126162
:10028000C0F35600C2F3560240F4000042F40002EC
:10029000A0FB022000047F39140400D0401C50EA67
:1002A000124001D44000491EC2B20C0604EBD0102B
:1002B000401C4008802A02D003E0002010BD20F03E
:1002C0000100002900DA0020184310BD30B480EA94
:1002D000010202F0004530F0004221F0004013D04E
:1002E00090B1C30DD40DC2F31601C0F31600E41A89
:1002F00041F4000140F400027D34914201D3641CBA
:1003000000E04900002C02DA30BC002070474FF4B6
:1003100000000023914201D3891A034340084FEAA9
:100320004101F7D151B1914202D14FF0004105E0B6
:1003300002D24FF0010101E06FF0010103EBC45064
:10034000284430BC00F002BA2DE9FE4F804681EA15
:100350000300C00F0C46009021F0004123F000453F
:10036000B8EB0200A94105D24046214690461C4602
:100370000B46024623F00040104347D0270DC7F339
:100380000A00C3F30A510290401A019040286BDA28
:10039000C3F3130040F4801B0098924620B1002361
:1003A000D2EB030A63EB0B0B01985946C0F14002F4
:1003B000504600F0AAF906460D4650465946019AA5
:1003C00000F0B2F910EB08006141002487EA1152F5
:1003D00084EAE7731A4340D0009A62B3019A012A73
:1003E0004FEA075215DC001B61EB02014FF000429F
:1003F00002EA0752CDE90042001C41F58011324665
:100400002B4600F0E9F903B0BDE8F08F40462146E5
:10041000F9E7001B61EB0201001C41F58013001895
:100420005B412018A2F5001747EB030140EAD570A5
:10043000B6196D4111E06D084FEA360645EAC07500
:100440004FEA0752001B61EB0201001C41F58011CD
:1004500049084FEA30000019514132462B4603B09B
:10046000BDE8F04F00F0A9B9009801224000002338
:10047000D0EB020263EBE073009821464FEAE07490
:10048000B8EB000061EB0401E9E783F000435BE7B0
:1004900081F0004158E72DE9FE4F81EA030404F0A2
:1004A000004421F0004100944FF0000B23F0004382
:1004B00050EA01045ED052EA03045BD0C3F30A544D
:1004C000C1F30A552C44A4F2F3340194A0FB025466
:1004D000C1F3130141F48011C3F3130343F48013F8
:1004E00001FB024400FB034E840A970A44EA81544C
:1004F00047EA8357A4FB076802958D0A05FB078529
:100500004FEA932C04FB0C542705029D4FEA065832
:1005100047EA1637B5EB08056EEB070C870E920E0F
:1005200047EA811742EA8312A7FB0201B6EB0B01EF
:1005300064EB00042B0D43EA0C335E1844EB1C50B3
:10054000DA465146E7FB0201C5F313044FEA0B33C9
:1005500043EA14534FEA0432019C43EA0603A4F130
:100560000C040294009CCDE900B400F035F903B00E
:10057000BDE8F08F00200146F9E72DE9F04D81EA52
:10058000030404F0004B21F0004514464FF0000A2C
:1005900023F0004150EA050220D054EA01021DD0A8
:1005A000C5F30A570246C5F31303C1F31300C1F3A1
:1005B0000A5640F4801543F48013A7EB0608101B7D
:1005C000D64608F2FD3873EB050002D308F10108A6
:1005D00001E092185B41B8F1000F03DA00200146F8
:1005E000BDE8F08D00204FF48011064684460EE0F1
:1005F000171B73EB050705D3121B63EB05030643BB
:100600004CEA010C49084FEA300092185B4150EA6D
:100610000107EDD152EA030012D082EA040083EA16
:100620000501084305D0101BAB4106D2012200236F
:1006300006E000224FF0004302E06FF00102531089
:100640001AEB06004CEB085110EB0A0041EB0B01D2
:10065000BDE8F04D00F0B1B896230022114600F03D
:100660007EB80EB540F2334102910021CDE9001170
:100670000A460B4600F0B0F803B000BD30B50B469B
:10068000014600202022012409E021FA02F59D42C2
:1006900005D303FA02F5491B04FA02F52844151E96
:1006A000A2F10102F1DC30BD2DE9F05F054600202A
:1006B00092469B4688460646814640241BE02846D3
:1006C000414647462246FFF79BFD53465A46C01A0D
:1006D000914110D311461846224600F016F82D1A03
:1006E00067EB01084F4622460120002100F00DF87B
:1006F00017EB00094E41201EA4F10104DFDC48463F
:1007000031462A464346BDE8F09F202A04DB203AC2
:1007100000FA02F1002070479140C2F1200320FA54
:1007200003F3194390407047202A06DBCB17203A89
:1007300041FA02F043EAE07306E041FA02F3D040E6
:10074000C2F1200291400843194670470029A8BF12
:100750007047401C490008BF20F00100704710B4EA
:10076000B0FA80FC00FA0CF050EA010404BF10BC9F
:10077000704749B1CCF1200421FA04F411FA0CF1CC
:1007800018BF012121430843A3EB0C01CB1D4FEA05
:1007900000614FEA102042BF002010BC704700EB00
:1007A000C35010440029A4BF10BC7047401C49002E
:1007B00008BF20F0010010BC704710B5141E73F183
:1007C000000408DA401C41F1000192185B411A4311
:1007D00001D120F0010010BD2DE9F04D92469B465D
:1007E00011B1B1FA81F202E0B0FA80F22032904603
:1007F000FFF78BFF04460F4640EA0A0041EA0B016F
:1008000053465A46084313D0114653EA010019D003
:10081000C8F140025046FFF7F3FC05460E4650462D
:1008200059464246FFF771FF084305D0012004E016
:1008300020463946BDE8F08D0020054346EAE076C3
:100840002C4337430A986305E40AA0EB0800002212
:10085000FD0A44EA47540A3002D500200146E9E780
:10086000010510196941DDE9084500196941BDE834
:10087000F04DA2E7C1F30A52C1F3130140F2FF3376
:1008800041F480119A4202DA00200146704740F29A
:1008900033439A42A2F2334202DC5242FFF7B0BC29
:1008A000FFF733BF30B5041E71F1000404DB4FF0D5
:1008B0000044404264EB0101141E73F1000405DBA7
:1008C0001C464FF00043524263EB0403994208BFB9
:1008D000904230BD064C074D06E0E06840F0010351
:1008E00094E8070098471034AC42F6D3FFF724FC95
:1008F000904A0008B04A000870B504460068816854
:10090000C943C9071CD1816821F00101816000F051
:10091000FDFC05460FE000BF00F0F8FC401B02287C
:1009200009D9A06A40F01000A062E06A40F001001E
:10093000E062012070BD20688068C043C007EBD032
:10094000002070BDF8B50026044600960068816856
:10095000C943C90728D0816841F00101816013486B
:1009600013490068B0FBF1F000E0401E0090002841
:10097000FBD100F0CBFC054611E000BF00F0C6FC47
:10098000401B02280BD9A06A40F01000A062E06A68
:1009900040F00100E06284F824600120F8BD206886
:1009A0008068C043C007E9D10020F8BD3C000020AA
:1009B00040420F000E4910B50A6850630968886309
:1009C0000C4C00224FF40061204600F09AFC0122FA
:1009D0001103204600F095FC00226114204600F02F
:1009E00090FC20460122BDE81040910300F089BC34
:1009F000C001002000180140FEE77047802000F091
:100A000077BB000001A002F089BD00004572726F43
:100A1000725F48616E646C65720D0A000E4910B514
:100A20000A685063096888630C4C0122D102204691
:100A300000F067FC0022A114204600F062FC0122B5
:100A40005103204600F05DFC2046BDE81040002226
:100A50004FF4804100F055BCC00100200018014057
:100A6000F8B50024009490F824202546012A12D0DD
:100A7000012280F824204A681F23072A0DD2066825
:100A8000776B521E02EB820293409F430B689340A8
:100A90001F43776319E00220F8BD06680D2A0AD2C9
:100AA000376BD21F02EB820293409F430B68934047
:100AB0001F43376309E0F76A0D3A02EB8202934065
:100AC0009F430B6893401F43F7620A680723066839
:100AD0000A2A0AD3F7680A3A02EB420293409F437C
:100AE0008B6893401F43F76008E0376902EB4202CE
:100AF00093409F438B6893401F4337610A68102AD5
:100B000001D0112A20D1124B02689A4217D1936862
:100B10001B0219D4936843F40003936009681029F9
:100B200012D10C490C4A0968B1FBF2F101EB8101C9
:100B3000490000E0491E00910029FBD104E0816AD0
:100B400041F020018162012480F824502046F8BD44
:100B5000002401403C00002040420F00806A7047A2
:100B60000068C06C704700002DE9F04104004FF0B0
:100B700000057FD0A06A002628B9E66284F82460C8
:100B8000204600F081F82046FFF7B6FEA16AC906AC
:100B900000D420B1A06A40F01000A0626AE0A16A0F
:100BA00021F4885141F00201A162334923688B424C
:100BB000E16904D1B1F5402F01D14FF40021E7687C
:100BC0004FF4807C41EA470261680A43A1686145AD
:100BD00008D0012906D00021D4F814E0BEF1010F9D
:100BE00002D00AE06146F7E7C7B1A76A47F02007DD
:100BF000A762E76A47F00107E7625F6827F4694781
:100C00000F435F60236899681C4F39401143996016
:100C1000A16861450BD0012909D00CE0DFF860E044
:100C2000A7690EEB47370F4347F40061E5E7218AD8
:100C30000D05A5F580152168CB6A23F470032B43BD
:100C4000CB62216889680F4B1940914208D1E66256
:100C5000A16A21F0020141F00101A162BDE8F08129
:100C6000A06A20F0020040F01000A062E06A40F0AC
:100C70000100E0620120F1E7003C0140FDF7E1FFE7
:100C800000E0FFFFFE0E1FFF10B586B000210091AF
:100C90000191029103911A4C03681A4903221A48E0
:100CA000A34211D18B6943F400738B618B6903F408
:100CB000007304938B6943F004038B61896901F02D
:100CC00004010491012113E0104CA34215D18B695A
:100CD00043F480638B618B6903F4806304938B69B5
:100CE00043F004038B61896901F00401049102213E
:100CF000CDE90012694600F007FA06B010BD000009
:100D0000002401400010024000080140002801407A
:100D10002DE9F84300260D460446009600F0F6FA49
:100D2000804620688168C90508D5A06A40F0200087
:100D3000A06284F824600120BDE8F8834168C905F9
:100D400003D4C06A10F4700F26D0022000F09AFB82
:100D500038490968B1FBF0F72068036936490B424E
:100D60004FEA61014FEAA1121BD1C3684FEA611C2F
:100D700013EA0C0F15D103690B4221D1C068104250
:100D80001ED114201FE0681C06D045B300F0BEFA47
:100D9000A0EB0800A84222D8206800688007F2D59E
:100DA0002AE003690B4202D1C168114206D00269F0
:100DB00022490A4206D1C068084203D1542002E009
:100DC000292000E0FC204743009813E0681C0ED067
:100DD0002DB100F09BFAA0EB0800A84207D9A06A49
:100DE00040F00400A06284F824600320A4E7009887
:100DF000401C0090B842E9D321686FF012000860EF
:100E0000A06A40F40070A06220688068C0F342408D
:100E100007280CD1E06850B9A06A20F48070A06265
:100E2000A06AC00403D4A06A40F00100A0620020C0
:100E300082E700003C0000202449922449922400CB
:100E400070B5044690F8240001280DD0012084F8E4
:100E500024002046FFF776FD02004FF0000005D089
:100E600084F82400104670BD022070BDA16A40F2D3
:100E70000123994341F48071A1621F4D23681F49EA
:100E8000AB4218D10E6816F4702F14D0A66A46F43F
:100E90008016A6620E68760505D5A66A26F4005669
:100EA00046F48056A662A66AF6040AD5E66A26F0DB
:100EB0000606E66206E0A66A26F48016A6625E686A
:100EC000E9E7E06284F824006FF00200186020680F
:100ED0008368C3F34243072B05D1A84208D10968B0
:100EE00011F4702F04D0816841F480118160B9E75A
:100EF000816841F4A001F9E7002801400424014081
:100F00002DE9F05F90F821100024022903D004217C
:100F10008163012485E001680A6822F00E020A60FC
:100F200001680A6822F001020A603F4E3E4FB21586
:100F3000DFF8F4C0DFF8F090DFF8ECA0DFF8E8B0FD
:100F4000DFF8E4E00168783F13011502ACF1640CAE
:100F5000A9F15009AAF13C0AABF1280BAEF1140E2D
:100F60004FF48018B14227D9B9420ED0614512D052
:100F700049451DD0514518D0594518D0714501D16A
:100F8000424615E0294EB14201D1012210E0274E20
:100F90001436B14201D110220AE0244E2836B14263
:100FA00006D0224A3C32914201D11A4600E02A463C
:100FB0001E49091F0A602BE0B94213D0614517D0C2
:100FC000494522D051451DD059451DD0714501D10B
:100FD00042461AE0B14202D14FF0807215E0134E42
:100FE000B14201D1012210E0104E1436B14201D1BC
:100FF00010220AE00D4E2836B14206D00B4A3C3290
:10100000914201D11A4600E02A46074980394A60D8
:10101000012180F82110002180F82010416B01B1DE
:1010200088472046BDE8F09F800002400804024047
:1010300070B5044600F06AF90546601C02D0044809
:101040000078044400F062F9401BA042FAD370BD5E
:10105000300000202DE9F04100241F4E1F4D802854
:1010600004D0BDE8F081641CB44205D88021284634
:1010700000F03EF90028F6D0194C2068016841F0D4
:1010800001010160216800204862074602E07F1CE0
:10109000B74205D88021284600F02AF90128F6D069
:1010A0002068016A41F21112114207D1016A9210BF
:1010B000114203D1016821F0010101602068406AFA
:1010C000FFF7CAFA0749FFF701F90749FFF7CCF81C
:1010D00006494860C5E7000000A24A04001001402C
:1010E000400100200000FA440000084200000020F7
:1010F000044910B50A68024202D00860FFF7AAFF4F
:1011000010BD0000140401402DE9F84FDFF8B8A12C
:1011100000220AF1040B144601274FF00F090BF1CE
:10112000040E00BF0B6807FA04F52B40AB4274D1E4
:10113000DFF898C14E68A6EB0C0866452BD00DDC95
:10114000032E34D005DC36B3012E19D0022E2FD158
:101150001BE0112E16D0122E2AD119E0B8F5881FE7
:1011600019D006DCB8F5803F15D0B8F5801F1FD127
:1011700011E0B8F5001F0ED0B8F5041F18D10AE031
:10118000CA6815E0CA68121D12E0CA6808320FE08A
:10119000CA680C320CE08A682AB1012A4FF00802B2
:1011A00003D0456104E0042202E0056100E0002272
:1011B000FF2B01D8064601E000F104064FEA840542
:1011C00001D9A5F12005D6F800C009FA05F82CEAE6
:1011D000080C02FA05F54CEA050CC6F800C04D688B
:1011E000ED006AD53A4DAE6946F00106AE61AD69D3
:1011F00024F0030605F001050095364D06EB050CBD
:10120000DCF80850A6074FEA167809FA08F6B54345
:10121000314EB04202D100261AE04EE02F4EB042CD
:1012200001D1012614E02E4EB04201D102260FE07A
:101230002C4EB04201D103260AE02B4EB04201D120
:10124000042605E0294EB04201D1052600E006261D
:1012500006FA08F62E43CCF808604D68DAF800600C
:10126000ED03554601D51E4300E09E432E604D68B8
:10127000AD0305D5DBF800601E43CBF8006004E049
:10128000DBF800509D43CBF800504D68DEF800605D
:10129000ED02754601D51E4300E09E432E604D6869
:1012A000AD0205D5084D0C352E681E432E6004E0B6
:1012B000054E0C3635689D433560641C102CFFF4D8
:1012C00031AFBDE8F88F00000004014000001110AC
:1012D000001002400000014000080140000C0140E5
:1012E000001001400014014000180140001C0140A2
:1012F0008068084000D001207047C2684A40C26040
:1013000070470AB1016170470904FBE70148806832
:1013100070470000300000200248816802781144C4
:101320008160704730000020074810B5016841F027
:1013300010010160032000F093F8002000F006F88F
:1013400000F03EF8002010BD0020024000B501462C
:1013500087B00022322000F063F8322000F054F809
:101360001348C16941F00801C161C06905A900F0D5
:1013700008000690684600F01BFA00F039FA0D49A3
:101380004000B0FBF1F10D480B4A491E026041607C
:1013900040F2E7320021C0E90321816000F02AFC1D
:1013A00010B1012007B000BD044800F08FFCF9E740
:1013B0000010024040420F00000C0040800200205C
:1013C0000F4808B5816941F001018161816901F02F
:1013D00001010091C16941F08051C161C0690022E1
:1013E00000F0805000900F21901E00F019F8054881
:1013F000416821F0E06141F00071416008BD0000EA
:10140000001002400000014000F01F020121914045
:101410004009800000F1E020C0F800117047000092
:10142000F0B40E4B1B680C46C3F30223C3F107054F
:10143000042D00D90425191D072901D2002300E03D
:10144000DB1E012606FA05F1491E214099409E4007
:10145000761E16403143F0BC01F056BB0CED00E0A7
:10146000064900F0070208684FF6FF03184040EAFB
:101470000220034A10430860704700000CED00E0B2
:101480000000FA0510B52CA401461DCC86B08DE8ED
:101490001D002DA02D4C00680490002004292FD0A1
:1014A0000BDC01292FD0022928D100F0B1F96168A5
:1014B000C1F38131491C49001EE0082920D01029C0
:1014C0001CD161682268D20118D5C1F38342C903D7
:1014D0001DF8020009D5616804AAC1F34041515CBE
:1014E0001B4AB2FBF1F1484301E01A4948436168E5
:1014F000490203D440000321B0FBF1F006B010BD57
:1015000000F096F9FAE7226AC2F30121012903D11A
:10151000920701D5C803F1E7022905D1626A920753
:1015200002D549F64040E9E70329E7D1216889035C
:10153000E4D54FF22440E1E7020304050607080959
:101540000A0B0C0D0E0F10100102000000100240DB
:1015500000127A0000093D002DE9F84305460078A5
:10156000354CC00754D0E0690026C00008D4E069BB
:1015700040F08050E061E069012600F0805000906A
:101580002E480168C90512D40168804641F4807173
:101590000160FFF7BBFE074605E000BFFFF7B6FEA0
:1015A000C01B642823D8D8F80000C005F6D5206AEF
:1015B00010F4407021D0A98801F4407181421CD000
:1015C000206A1F49012220F440700A6000220A604C
:1015D0002062C00711D0FFF799FE074641F2883814
:1015E00008E000BFFFF792FEC11B414502D903206E
:1015F000BDE8F883206A8007F4D5206A696820F482
:101600004070084320621EB1E06920F08050E06124
:101610002878800705D56068A96820F44040084311
:1016200060602878C00605D56068696920F480008C
:10163000084360600020DBE70010024000700040BB
:10164000400442422DE9F047DFF8548105460E463A
:10165000D8F8000000F00700B0420CD2D8F8001013
:1016600021F007013143C8F80010D8F8000000F05D
:101670000700B0426FD128684A4C810712D5400755
:1016800003D5606840F4E06060602878000703D507
:10169000606840F4605060606068A96820F0F00005
:1016A000084360602878C00744D06868012816D0D5
:1016B0002168022816D0890700294CDA616821F0D8
:1016C000030101436160FFF721FE6968074641F2AB
:1016D000883001290ED00229814618D026E02168E1
:1016E0008903E9E78901E7E7FFF710FEC11B4945D8
:1016F00001D918E081466068C0F381000128F3D168
:1017000018E000BFFFF702FEC11B49450BD8606817
:10171000C0F381000228F5D10CE000BFFFF7F6FD11
:10172000C11B494502D90320BDE8F087606810F06D
:101730000C0FF3D1D8F80010404601F00701B14278
:101740000BD9016821F0070131430160006800F006
:101750000700B04201D00120E6E72878400705D510
:101760006068E96820F4E06008436060287800075A
:1017700006D56068296920F4605040EAC1006060C5
:1017800000F056F86168084AC1F30311515CC84083
:10179000064908600020FFF7D9FD0020C4E70000DB
:1017A0000020024000100240544A00083C00002083
:1017B0000F2202600C4A536803F00303436053682E
:1017C00003F0F0038360536803F4E063C36052687E
:1017D0004FF4E06303EAD20202610448006800F0BB
:1017E000070008607047000000100240002002401F
:1017F0000448054900684968044AC1F30221515C64
:10180000C84070473C00002000100240644A0008B5
:101810000448054900684968044AC1F3C221515C83
:10182000C84070473C00002000100240644A000895
:1018300012A185B00FC98DE80F0014A0144A0068EA
:1018400004905168134801F00C03042B10D0082BAE
:101850000ED1C1F38343C9031DF803000AD55168B3
:1018600004AAC1F34041515C0A4A5043B0FBF1F075
:1018700005B0704708494843FAE700000203040531
:10188000060708090A0B0C0D0E0F101001020000CC
:101890000010024000127A0000093D002DE9F84FC7
:1018A00004460078B94DC00748D06868C0F381008D
:1018B000012807D06868C0F38100022809D1686850
:1018C000C00306D52868800338D5606800286FD02B
:1018D00034E06068B0F5803F0BD010B1B0F5A02FB8
:1018E00011D0286820F480302860286820F48020F7
:1018F00002E0286840F480302860606888B1FFF713
:1019000005FD064609E0286840F480202860F0E7DD
:10191000FFF7FCFC801B642875D828688003F7D586
:101920000CE0FFF7F3FC064605E000BFFFF7EEFC16
:10193000801B6428F0D828688003F7D42078944E60
:1019400080074FF001094FF000083BD5686810F0A0
:101950000C0F07D06868C0F38100022809D16868BD
:10196000C00306D42868800714D5206901281FD138
:1019700010E02069B0B1C6F80090FFF7C7FC074639
:1019800005E000BFFFF7C2FCC01B0228C4D82868CE
:101990008007F7D52868616920F0F80040EAC100A7
:1019A00028600FE0C6F80080FFF7B0FC074606E0AD
:1019B000E9E000BFFFF7AAFCC01B022823D8286873
:1019C0008007F7D4207800072CD57248A169D9B1D7
:1019D000C0F80090FFF79AFC074604E0FFF796FC7A
:1019E000C01B02280FD8686A8007F7D56A484FF4F1
:1019F000FA510068B0FBF1F0009000BF0098411E62
:101A00000091FAD20EE080E0C0F80080FFF77EFC83
:101A1000074604E0FFF77AFCC01B022875D8686A05
:101A20008007F7D42078400760D5E8690027C00018
:101A300008D4E86940F08050E861E869012700F0C7
:101A40008050009055480168C90513D40168834649
:101A500041F480710160FFF759FC824606E000BF47
:101A6000FFF754FCA0EB0A0064284ED8DBF8000016
:101A7000C005F5D5E06801280AD008B1052813D0C3
:101A8000286A20F001002862286A20F0040002E0A1
:101A9000286A40F001002862E06841F2883B98B172
:101AA000FFF734FC82460BE0286A40F0040028620D
:101AB000EEE700BFFFF72AFCA0EB0A0159455AD810
:101AC000286A8007F6D50CE0FFF720FC824605E087
:101AD000FFF71CFCA0EB0A0159454CD8286A800787
:101AE000F6D41FB1E86920F08050E861E06988B35E
:101AF0006968C1F38101022945D00228C6F86080D7
:101B000004D0FFF703FC044638E034E0FFF7FEFBA7
:101B1000074604E0FFF7FAFBC01B02282BD8286811
:101B20008001F7D4206AB0F5803F05D16868A168CC
:101B300020F4003008436860D4E90801084369686C
:101B400021F4741108436860C6F86090FFF7DEFB6B
:101B5000044606E015E000BFFFF7D8FB001B022893
:101B600009D828688001F7D50BE000BFFFF7CEFB4E
:101B7000001B022802D90320BDE8F88F28688001E5
:101B8000F4D40020F8E70120F6E70000001002403E
:101B900000004242800442423C00002000700040AD
:101BA0007047704730B590F83C20012A20D00122C0
:101BB00080F83C20022380F83D3003685C6824F004
:101BC00070045C6003685C680D682C435C600368AB
:101BD0009C6824F080049C6003689C6849680C43FE
:101BE0009C6080F83D20002180F83C10084630BD04
:101BF000022030BD10B5040003D094F83D0010B1B0
:101C000007E0012010BD002084F83C00204600F0D1
:101C10000DF8022084F83D00211D206801F096F99E
:101C2000012084F83D00002010BD000008B5234AC3
:101C300001682348914208D1816941F400618161C2
:101C4000806900F40060009008BDB1F1804F11D0B0
:101C50001C4A91421DD1C16941F00201C161C069B4
:101C6000002200F00200009005211D20FFF7D8FBA4
:101C70001D201FE0C16941F00101C161C06900225E
:101C800000F00100009005211C20FFF7C9FB1C207B
:101C900010E00D4A9142D7D1C16941F00401C16100
:101CA000C069002200F00400009005211E20FFF70B
:101CB000B7FB1E20BDE80840FFF7A6BB002C014083
:101CC0000010024000040040000800400168CA689B
:101CD00042F00102CA600068016841F00101016040
:101CE0000020704770B5044690F83C00012817D0DA
:101CF000012584F83C50022084F83D002068826869
:101D000022F0770222F47F4282600868502837D0A0
:101D10000DDC202859D005DC88B3102841D151E0D2
:101D2000022070BD302853D040283AD13FE06028CF
:101D30002ED070280BD0B0F5805F03D0B0F5005FD7
:101D40002FD110E02068816821F0070115E0CB68F1
:101D5000D1E90121206801F04AF92168886840F042
:101D6000770088601DE0CB68D1E90121206801F08F
:101D70003EF92068816841F48041816011E01EE0F5
:101D8000CA684968206801F007FA5021206806E017
:101D9000CA684968206801F010FA6021206801F0E3
:101DA00030F984F83D50002084F83C0070BDCA68CA
:101DB0004968206801F0F0F940212068EFE7002130
:101DC0002068ECE710212068E9E720212068E6E799
:101DD00030212068E3E7704770B504460068016968
:101DE0004FF00005C943890715D4C168C943890765
:101DF00011D4E91E016101202077206880698007E5
:101E0000204602D0FFF7E7FF04E000F0CFF82046BD
:101E100000F051F9257720680169C943490717D4B3
:101E2000C168C943490713D46FF00401016102205E
:101E300020772068806910F4407F204602D0FFF7A9
:101E4000CAFF04E000F0B2F8204600F034F925772C
:101E500020680169C943090716D4C168C943090745
:101E600012D46FF008010161042020772068C06956
:101E70008007204602D0FFF7AEFF04E000F096F89E
:101E8000204600F018F9257720680169C943C90682
:101E900017D4C168C943C90613D46FF0100101619A
:101EA000082020772068C06910F4407F204602D0C7
:101EB000FFF791FF04E000F079F8204600F0FBF80E
:101EC000257720680169C943C90708D1C168C9439A
:101ED000C90704D1891E0161204600F009F9206874
:101EE0000169C943090609D4C168C943090605D473
:101EF0006FF0800101612046FFF752FE2068016902
:101F0000C943490609D4C168C943490605D46FF0DD
:101F100040010161204600F00BF920680169C943C6
:101F200089060BD4C168C943890607D46FF0200124
:101F300001612046BDE87040FFF733BE70BD000070
:101F400010B586B000210091019102910391134CCC
:101F50000368134A02211348A3420BD1936943F04B
:101F6000080393619269009102F008020191CDE9A2
:101F700003120EE00C4CA3420ED1936943F0080308
:101F800093619269039102F008020492C022CDE9A4
:101F900000216946FFF7B8F806B010BD0004004004
:101FA00000100240000C014000080040704770B56E
:101FB000044690F83C000D4601280DD0012684F817
:101FC0003C60022084F83D0042B1042A18D0082A5F
:101FD0002AD00C2A4DD139E0022070BD206801F0D2
:101FE00019F82068816941F00801816120688169E0
:101FF00021F004018161206881692A69114311E09F
:10200000206801F037F82068816941F4006181613E
:102010002068816921F480618161206881692A6971
:1020200041EA0221816124E0206801F059F820682A
:10203000C16941F00801C1612068C16921F0040152
:10204000C1612068C1692A69114311E0206801F06B
:102050007BF82068C16941F40061C1612068C169F1
:1020600021F48061C1612068C1692A6941EA0221C5
:10207000C16184F83D60002084F83C0070BD10B55B
:10208000040003D094F83D0010B107E0012010BD1A
:10209000002084F83C00204600F00CF8022084F870
:1020A0003D00211D206800F051FF012084F83D0013
:1020B000002010BD7047704710B50446006801222B
:1020C00000F08AFF08492068884202D00749884208
:1020D00003D1416C41F4004141642068016841F042
:1020E00001010160002010BD002C014000340140BE
:1020F00010B5044600680A49884207D120210948E2
:10210000FFF7FBF820210848FFF7F7F80749206898
:10211000884203D1BDE81040FFF7FEB810BD0000B3
:10212000002C0140000C014000180140000C004050
:102130007047704770B5026804461068D1685369EB
:1021400010F00F0F50D003F0010501F490763543E5
:102150005DD0C20705D0CA0503D5E26B42F001028B
:10216000E263420705D5DA0703D0E26B42F00202D0
:10217000E263820705D5DA0703D0E26B42F004027E
:10218000E263020705D5DA0703D0E26B42F00802EA
:10219000E263E26B002A33D0800604D5880602D5BC
:1021A000204601F032F820684069E16BC0F38010EE
:1021B000090700D428B3204601F019F820684169C6
:1021C00049061AD5416921F040014161606BA0B117
:1021D0001B494163606BFEF793FE002810D0606BD3
:1021E000416BBDE870400847830610D58B060ED5BD
:1021F0002046BDE8704001F008B82046FFF799FF7F
:1022000070BD2046FFF795FF0020E06370BD030618
:1022100006D50B0604D52046BDE8704001F0F8B89D
:102220004006F3D54806F1D5D168204621F040019B
:10223000D160202184F8391000F0DFF970BD000072
:10224000DF31000870B5040004D094F8390000258F
:1022500010B106E0012070BD84F83850204600F02F
:1022600023F8242084F839002068C16821F4005143
:10227000C160204601F014F82068016921F4904102
:1022800001612068416921F02A0141612068C1682B
:1022900041F40051C160E563202084F8390084F8DE
:1022A0003A00002070BD000070B586B00024009494
:1022B0000194029403942B4E03682B4902200322BD
:1022C0002A4DB34221D18B6943F480438B618B69E2
:1022D00003F4804304938B6943F004038B618969A1
:1022E000039201F0040104910102CDE90010694656
:1022F0002846FEF709FF2815CDE90004694628465F
:102300000294FEF701FF06B070BD194EB342FAD138
:10231000CB6943F40033CB61CB6903F400330493FE
:102320008B6943F004038B618969039201F0040116
:1023300004910421CDE9001069462846FEF7E4FE29
:102340000820CDE90004694628460294FEF7DCFE29
:10235000002205212620FFF763F82620FFF754F816
:10236000D1E70000003801400010024000080140A1
:102370000044004090F83A30202B22D1F9B1F2B15C
:1023800090F83830012B1CD081628285C2850021F3
:10239000C163222280F83A2080F838100168CA68A8
:1023A00042F48072CA6001684A6942F001024A61DF
:1023B0000068C16841F02001C16000207047012021
:1023C00070470220704700002DE9F05F0546006865
:1023D0004C49002601274C4C4FF47A7B4FF0030800
:1023E0004FF002094FF0040A88423FD164230122D2
:1023F0002146464800F0A4F8204600786C2821D0F9
:1024000004DC62280DD066282BD104E0722811D09C
:10241000732826D11EE05846FEF700FB66803CA0DC
:1024200005E04FF4FA70FEF7C5FA67803AA001F0B4
:1024300075F816E000F078FB39A001F06FF8A4F809
:1024400002800EE000F0DCF837A001F067F8A4F895
:10245000029006E000F0C0FC35A001F05FF8A4F89F
:1024600002A0012228492948FFF784FF3249286841
:10247000884244D1244964230122491C2F4800F09A
:102480005FF82148401C00786C2821D004DC6228C9
:102490000DD066282BD104E0722811D0732826D1E4
:1024A0001EE05846FEF7BAFA668019A005E04FF420
:1024B000FA70FEF77FFA678017A001F02FF816E098
:1024C00000F032FB16A001F029F8A4F802800EE01B
:1024D00000F096F814A001F021F8A4F8029006E0AC
:1024E00000F07AFC12A001F019F8A4F802A0BDE8EF
:1024F000F05F05490122491C1048FFF73BBFBDE8CA
:10250000F09F000000380140000000200002002081
:10251000C7B0BDF80D0A0000BAF3CDCB0D0A00001C
:10252000D7F3D7AA0D0A0000D3D2D7AA0D0A00000C
:10253000CDA3B3B50D0A00000044004040020020C6
:102540002DE9F843044690F839001F4616460D461B
:10255000202850D1A5B19EB194F8380001284AD066
:10256000012084F838004FF00008C4F83C80212096
:1025700084F83900FEF7CAFEA6848146E68426E088
:102580000120BDE8F883E08C401EE084A0684B4643
:10259000B0F5805F4FF000024FF0800120460097B9
:1025A00003D000F066FFE8B90DE000F062FFC8B9A3
:1025B00028882168C0F308004860206908B16D1CB4
:1025C00005E0AD1C03E0216815F8010B4860E08CC4
:1025D0000028D8D14B46002240212046009700F029
:1025E00048FF08B10320CCE7202084F8390084F8A4
:1025F00038800020C5E70220C3E77047FEE70000EF
:10260000104810B502680021516300684FF49671BC
:1026100081630D4C00224FF400612046FEF771FEED
:102620000022A1142046FEF76CFE01225103204631
:10263000FEF767FE2046BDE8104000224FF48041BF
:10264000FEF75FBEC0010020001801403EB5002427
:1026500010480094019402948460C4600C49446161
:102660000160012505614FF460214460C161FEF7FE
:102670007BFA08B1FEF7C6F9CDE900456946054881
:102680000294FEF7EDF9002801D0FEF7BBF93EBD3C
:1026900000240140A00000203EB500241048009412
:1026A000019402948460C4600C4944610160012576
:1026B00005614FF460214460C161FEF755FA08B12D
:1026C000FEF7A0F90095CDE9015469460448FEF7EC
:1026D000C7F9002801D0FEF795F93EBD002801405A
:1026E000D000002010B590B0142211496846FDF7C3
:1026F00097FD0021684601F0E9FC0E4C0C491422BC
:102700002060143105A8FDF78BFD002105A801F01C
:10271000DDFC07496060142228310AA8FDF780FD1E
:1027200000210AA801F0D2FCA06010B010BD00008A
:10273000184A0008200000202DE9F04F85B0002441
:1027400049480094019402940394816941F0400146
:102750008161816901F040010491816941F00401C6
:102760008161816901F004010491816941F00801EE
:102770008161816901F008010491816941F01001D2
:102780008161816901F010010491816941F02001AA
:1027900081618069DFF8D48000F0200047F62005D1
:1027A0000490002229464046FEF7ABFDDFF8C090BA
:1027B0004FF48077002239464846FEF7A2FDDFF845
:1027C000B4A0002210215046FEF79BFDDFF8A8B010
:1027D000012220215846FEF794FD00223946584632
:1027E000FEF78FFD0126CDE90056022569464046D9
:1027F000CDE90245FEF788FC802000901F48CDE916
:10280000010569464846FEF77FFCCDE9007669463A
:102810004846CDE90245FEF777FC0820CDE90004E3
:10282000694650460294FEF76FFC1020CDE9000681
:1028300069465046CDE90245FEF766FC4FF49070BC
:10284000CDE9000669465846CDE90245FEF75CFC35
:10285000002205211720FEF7E3FD1720FEF7D4FD27
:1028600005B0BDE8F08F00000010024000180140E4
:102870000010014000140140000C01400000111044
:1028800010B586B000241848009401940294039473
:10289000049414490594016048F69F41C0E901146D
:1028A00040F2E731C0E9031444618461FFF7A2F903
:1028B00008B1FEF7A7F84FF48050009069460A4827
:1028C000FFF710FA08B1FEF79DF8049404A9064832
:1028D0000594FFF767F9002801D0FEF793F806B0DA
:1028E00010BD0000002C01400001002010B586B092
:1028F00000241648009401940294039404944FF029
:102900008041059401604721C0E901144FF6FF7131
:10291000C0E903148461FFF76DF908B1FEF772F89E
:102920004FF48050009069460848FFF7DBF908B182
:10293000FEF768F8049404A904480594FFF732F9F7
:10294000002801D0FEF75EF806B010BD400100205F
:1029500030B58DB000240794089409940A940B9420
:102960001C2168460C94FDF774FC1F481D4940F279
:10297000CF2502C040F2CF7132C040F810498461C7
:102980001948FFF737F908B1FEF73CF84FF48050CB
:10299000079007A91448FFF7A5F908B1FEF732F828
:1029A0001148FFF76CFB08B1FEF72CF80B940BA94C
:1029B0000D480C94FFF7F6F808B1FEF723F86020F5
:1029C0000090CDE901540C22694607480494FFF7B2
:1029D000EEFA08B1FEF716F80348FFF7B1FA0DB0AA
:1029E00030BD0000000400408001002010B58EB012
:1029F00000240794089409940A940B941C216846B7
:102A00000C94FDF726FC2248204901604721C0E9CB
:102A1000011440F2E731C0E903148461FFF7EAF8DA
:102A200008B1FDF7EFFF4FF48050079007A9184851
:102A3000FFF758F908B1FDF7E5FF1548FFF71FFB51
:102A400008B1FDF7DFFF0B940BA911480C94FFF7B9
:102A5000A9F808B1FDF7D6FF6020CDE90004029483
:102A6000002269460A480494FFF7A1FA08B1FDF76D
:102A7000C9FF042269460648FFF799FA08B1FDF735
:102A8000C1FF0348FFF75CFA0EB010BD000800401C
:102A9000C00100200C4810B50A4901604FF4E13133
:102AA0004160002181600C22C160C0E90412816193
:102AB000C161FFF7C7FB002803D0BDE81040FDF758
:102AC000A1BF10BD00380140000200200C4810B525
:102AD0000A4901604FF416514160002181600C22C7
:102AE000C160C0E904128161C161FFF7ABFB00283E
:102AF00003D0BDE81040FDF785BF10BD0044004085
:102B000040020020FEE770470907090E002806DA98
:102B100000F00F0000F1E02080F8141D704700F174
:102B2000E02080F800147047104810B502684FF498
:102B3000967151630068002181630D4C0122D1021E
:102B40002046FEF7DEFB0022A1142046FEF7D9FB4B
:102B5000002261142046FEF7D4FB2046BDE8104059
:102B600000224FF48041FEF7CCBB0000C0010020E2
:102B7000001801404FF4FA761A4DB7007400288807
:102B80000028FCD101F0D6F90528F8D116A000F0F4
:102B9000C5FC01F0DFF9052803D101F0F1F90528A2
:102BA0000DD001F0D7F9062818D001F0E9F9062870
:102BB000E5D1FFF7B9FF204601F07CFADFE73046A8
:102BC000FDF7F8FE204601F075FAFFF7ADFF384635
:102BD00001F070FA2046FDF721FFD0E7FFF710FD66
:102BE000E9E7000002000020B4E6D4DAD5CFB0ADAA
:102BF000CEEF0D0A000000001CB54FF08054154DBB
:102C00004FF4FA6601F0A6FD684601F07DF901F087
:102C1000A1FE20B92C60BFF34F8FBFF36F8F0098D8
:102C200008B9019888B101F095FD0BA0009900F05A
:102C300075FC0DA0019900F071FC01F08BFE20B92C
:102C40002C60BFF34F8FBFF36F8F304601F032FA25
:102C5000D8E7000004ED00E054656D70203A2025AF
:102C600064200D0A0000000048756D69203A202597
:102C700064200D0A00000000344E354D4FF08054A2
:102C80004FF47A7808213046FEF732FB01280CD148
:102C900001F060FD2FA000F041FC01F05BFE20B9C7
:102CA0002C60BFF34F8FBFF36F8F3548FEF7C8F826
:102CB00032213348FEF72CF83148FDF74FFF8005ED
:102CC00021D52F48FDF74CFF87B201F043FD384670
:102CD000FDF7C7FC00222B4BFDF7DDFB00222A4B42
:102CE000FDF74BFC0022294BFDF72EFB02460B465D
:102CF00027A000F013FC01F02DFE20B92C60BFF3DB
:102D00004F8FBFF36F8F2A48FEF79AF83221284879
:102D1000FDF7FEFF2648FDF721FF800511D5244869
:102D2000FDF71EFF87B201F015FD394621A000F026
:102D3000F5FB01F00FFE20B92C60BFF34F8FBFF3FE
:102D40006F8F404601F0B6F99CE700000014014087
:102D500004ED00E0536F6D656F6E65207761732041
:102D6000646574656374656420746F2062652061B6
:102D70006374697665206E65617262792E0D0A0052
:102D8000A0000020004CCD4000FEAF400088B340C2
:102D90004D512D3228504130292056616C756520E7
:102DA0003A20252E326670706D200D0A000000005A
:102DB000D000002046697265203A20414443322801
:102DC000504131292052656164696E67203A20259F
:102DD00064200D0A000000000F4910B50A680020A9
:102DE0005063096888630D4C02464FF40061204629
:102DF000FEF787FA0022A1142046FEF782FA00228D
:102E000061142046FEF77DFA2046BDE810400022FE
:102E10004FF48041FEF775BAC00100200018014050
:102E200010B5502080F31188BFF34F8FBFF36F8F21
:102E300001F02CFD18B104494FF0805008600020CB
:102E400080F3118810BD000004ED00E030B595B0AE
:102E500028216846FDF7FDF914210AA8FDF7F9F9C4
:102E600018210FA8FDF7F5F901210804CDE900109C
:102E70000025029502240491CDE907404FF4E010AB
:102E800009906846FEF70AFD08B1FDF7BBFD0AA9E7
:102E90000F2081E831004FF48060CDE90D0502215B
:102EA0000AA8FEF7CFFB08B1FDF7ACFD4FF40040D8
:102EB00011900F940FA8FEF74FFB002801D0FDF7EB
:102EC000A1FD15B030BD00000D48016841F00101C1
:102ED000016041680B4A1140416001680A4A114093
:102EE0000160016821F480210160416821F4FE0144
:102EF00041604FF41F0181600449C00308607047BE
:102F0000001002400000FFF8FFFFF6FE08ED00E0B1
:102F10000148FEF761BF0000000100200148FEF7F4
:102F20005BBF0000400100200148FEF755BF0000D4
:102F3000800100200148FEF74FBF0000C0010020C3
:102F40000148FEF749BF000080020020F0B502688A
:102F50001C4B1D4D1D4E1E4F1E4C4FF0804C984279
:102F600009D0A04207D0604505D0A84203D0B042A6
:102F700001D0B84204D122F0700E4A6842EA0E0233
:102F8000984209D0A04207D0604505D0A84203D09E
:102F9000B04201D0B84203D122F44075CA682A4336
:102FA00022F080054A692A4302608A68C2620A6880
:102FB0008262984201D0A04201D1096901630121D6
:102FC0004161F0BD002C01400004004000080040B9
:102FD000000C00400034014010B50123046A8B400E
:102FE0009C430462036A8A401343036210BD10B518
:102FF000846842EA032224F47F440A432243826025
:1030000010BD826822F070020A4342F0070181601D
:1030100070470000F0B5026A22F001020262036A02
:1030200042688469124E24F073050C682C4323F027
:1030300002058B682B430D4DA84201D0B04205D14B
:1030400023F00807CB683B4323F00403A84201D0D8
:10305000B04205D14D6922F4407215438A692A4372
:1030600042608461496841630362F0BD002C014005
:1030700000340140F0B5026A22F010020262026AD6
:10308000436884690D6824F4E64444EA05248D68A5
:1030900022F0200242EA05120F4D104EA84201D044
:1030A000B04206D1CF6822F0800242EA071222F035
:1030B0004002A84201D0B04207D14D6923F44063D9
:1030C00043EA85038D6943EA850343608461496867
:1030D00081630262F0BD0000002C01400034014019
:1030E000F0B5026A22F480720262026A4368C4691F
:1030F00022F4007224F073050C68124E2C438D6884
:1031000042EA05220E4DA84201D0B04206D1CF6856
:1031100022F4006242EA072222F48062A84201D02F
:10312000B04207D14D6923F4405343EA05138D693A
:1031300043EA05134360C4614968C1630262F0BD9C
:10314000002C01400034014030B5026A22F4805264
:103150000262046A4268C3690D6823F4E64343EAE5
:1031600005238D6824F4005444EA0534084DA84230
:1031700002D0084DA84204D14D6922F4804242EAAF
:1031800085124260C36149680164046230BD000079
:10319000002C01400034014010B5036A046A24F099
:1031A00001040462846924F0F00444EA021423F068
:1031B0000A020A438461026210BD10B5036A23F05B
:1031C000100303628369046A23F4704343EA023202
:1031D00024F0A00343EA01118261016210BD10B521
:1031E000406A0021C185C184FEF7A3FF10BD0168BC
:1031F000CA6822F49072CA6001684A6922F001022A
:103200004A61202180F83A10704710B590F83A10C2
:10321000222901D0022010BD8168B1F5805F11D054
:103220000169002901681FD0496801F07F03816AA4
:103230004A1C82620B70C18D491E0904090CC185AC
:1032400018D02BE00269816A002A0268526805D012
:10325000D2B20A80816A491C8162ECE7C2F308029B
:103260000A80816A891CF7E74A68816A4B1C83627D
:103270000A70E0E70168CA6822F02002CA600168AB
:10328000CA6822F48072CA6001684A6922F00102A9
:103290004A61202180F83A10FFF796F8002010BD0F
:1032A0002DE9F041044600680169E26821F44051CB
:1032B000114301612169A0680843616908432168DD
:1032C000CA6841F20C639A430243CA6020684169AC
:1032D000A26921F44071114341614C492068642581
:1032E000322688423CD1FEF793FA00EBC00101EB95
:1032F000001061688900B0FBF1F7FEF789FA00EB76
:10330000C00101EB00106168B0468900B0FBF1F02C
:10331000B0FBF5F06FF01801484307EB800106EBB6
:103320000110B0FBF5F000F0F006FEF771FA00EBCB
:10333000C00101EB001061688900B0FBF1F0B0FB47
:10334000F5F006EB0016FEF763FA00EBC00101EBA7
:10335000001061688900B0FBF1F7FEF759FA3BE015
:10336000FEF746FA00EBC00101EB0010616889002E
:10337000B0FBF1F7FEF73CFA00EBC00101EB0010E7
:103380006168B0468900B0FBF1F0B0FBF5F06FF07A
:103390001801484307EB800106EB0110B0FBF5F084
:1033A00000F0F006FEF724FA00EBC00101EB00107C
:1033B00061688900B0FBF1F0B0FBF5F006EB001698
:1033C000FEF716FA00EBC00101EB001061688900FE
:1033D000B0FBF1F7FEF70CFA00EBC00101EB0010B7
:1033E00061688900B0FBF1F0B0FBF5F06FF01801F7
:1033F000484307EB800108EB0110B0FBF5F02168B2
:1034000000F00F0030448860BDE8F08100380140D2
:1034100090F83910212901D0022070478168B1F558
:10342000805F016A0BD04A1C026202680978516011
:10343000C18C491E0904090CC1840ED017E009880B
:103440000268C1F30801516001690029016A02D0D4
:10345000491C0162ECE7891CFBE70168CA6822F09D
:103460008002CA600068C16841F04001C16000206C
:1034700070472DE9F041984617460E460446069DD2
:103480001DE0681C1BD02DB1FDF740FFA0EB08002C
:10349000A84214D92068C16821F4D071C1602068A5
:1034A000416921F001014161202084F8390084F84C
:1034B0003A00002084F838000320BDE8F08120683D
:1034C000006836EA000004D00020B842D9D00020BD
:1034D000F3E70120F9E700000148FEF72BBE0000EA
:1034E000000200200148FEF725BE00004002002037
:1034F00070B50122074D140221462846FDF701FF51
:10350000142000F084FC21462846BDE870400022CB
:10351000FDF7F7BE00100140FEE700000FB4054BB9
:1035200010B503A9044A029800F0DAF810BC5DF85F
:1035300014FB00001D3F00082C00002002E008C81A
:10354000121F08C1002AFAD170477047002001E01D
:1035500001C1121F002AFBD1704700002DE9FF5F57
:1035600082B00021DDE90430020DDDF840B00343F4
:1035700018D044F61050A2F2FF32424315141198AD
:1035800001281FD0A5EB0B00401C5FEA000A4FF09A
:1035900000064E4FDFF83891B046504615D5CAF1B7
:1035A000000413E0119801244AA3012801D16FEA15
:1035B0000B010298119AC0E90031C0E9024206B03D
:1035C000BDE8F09FCBF10000DFE704460021404A50
:1035D000491842EB0450CDE9001012E0E00707D093
:1035E00032463B4640464946FCF755FF80468946F1
:1035F00032463B4610461946FCF74DFF06460F463D
:103600006410002CEAD1DDE90401DDE90023BAF100
:10361000000F06DAFCF73FFF42464B46FCF73BFF44
:1036200005E0FCF7AAFF42464B46FCF7A6FF04461E
:103630000E460022284BFDF735F903D84FF0FF3036
:10364000014607E00022254B20463146FCF77CFE70
:10365000FDF710F9102409E0002C0ADB0A220023F0
:10366000FDF722F8039B30321A55641E50EA01021E
:10367000F2D1641C039AC4F111031444119A012A73
:1036800003D0012208430DD10AE0084304D00020F2
:103690004FF0110B119072E7A3EB0B056D1E0DE0BF
:1036A0005B4504DD4FF0000205F1010504E003DA9B
:1036B0004FF00002A5F10105002AECD00298119903
:1036C000C0E90231C0E9004579E70000000014407C
:1036D0000000F03F300000000000F0430000E03F39
:1036E0002DE9FF4F95B09B468946064600250FE21F
:1036F000252877D100242746F84A0121059400E0C7
:10370000044316F8013F203B01FA03F01042F7D1C1
:1037100030782A2811D06FF02F033078A0F13002D2
:10372000092A16D8059A44F0020402EB820203EB40
:1037300042021044761C0590EFE759F8042B0592DD
:10374000002A03DA504244F40054059044F0020485
:10375000761C30782E2816D116F8010F44F0040498
:103760002A280DD06FF02F023078A0F13003092BFA
:1037700009D807EB870302EB4303C718761CF3E76E
:1037800059F8047B761C30786C280FD006DC4C2866
:1037900017D068280DD06A2814D104E0742810D0FE
:1037A0007A280FD10DE044F400140AE044F48014A8
:1037B00001E044F440147278824202D104F580148E
:1037C000761C761C307866280BD013DC582877D00E
:1037D00009DC002875D04528F6D04628F4D04728C3
:1037E0001AD19DE118E0632835D0642879D0652886
:1037F00012D195E1702873D008DC6728F1D06928D0
:103800006FD06E280DD06F2806D1B5E073282CD06C
:10381000752875D0782874D05A46179990476D1C32
:1038200075E1C4F30250022809D003280DD0D9F85D
:10383000001004280DD00D6009F1040967E1D9F8E2
:103840000010EA17C1E90052F6E7D9F800100D8020
:10385000F2E70D70F0E719F8041B8DF80010002056
:103860008DF80100EA46012003E059F804AB4FF05F
:10387000FF3061074FF0000102D40DE008F10101B3
:103880008846B9420FDA8045F8DB1AF8081000299B
:10389000F4D108E008F1010188468142FADB1AF808
:1038A00008100029F6D105985B46A0EB08072146D1
:1038B0003846179A00F094FA284400EB080507E010
:1038C0004DE029E10DE01AF8010B5A46179990478F
:1038D000B8F10108F7D25B4621463846179A13E142
:1038E00042E00A220092C4F302524FF0000A022A78
:1038F00008D059F804CB032A4FEAEC710AD00DE046
:1039000029E02AE009F1070121F00702F2E802C1EB
:10391000914609E00FFA8CFC4FEAEC71042A03D1BE
:103920004FFA8CFC4FEAEC71002907DA0A460021B5
:10393000DCF1000C61EB02012D2202E0220504D52E
:103940002B228DF80420012203E0E20701D020227F
:10395000F7E7904659E00A2102E010220DE010211D
:103960004FF0000A00910BE010224FF0000A44F0E3
:1039700004040827009203E008224FF0000A009296
:10398000C4F30252022A05D059F804CB0021032ABD
:1039900008D009E009F1070121F00702F2E802C1AD
:1039A000914605E01FFA8CFC042A01D10CF0FF0CB3
:1039B0004FF00008220728D5702806D0009B83F01E
:1039C000100353EA0A0305D00EE040228DF80420CC
:1039D000012208E05CEA010206D030228DF80420C2
:1039E0008DF8050002229046009B83F0080353EAFD
:1039F0000A030AD15CEA010201D1620705D530222F
:103A00008DF804204FF001087F1E582804D034A000
:103A100003900EA802900DE036A0F9E753466046E9
:103A2000009AFCF741FE84460398825C0298401E8F
:103A3000029002705CEA0100F0D1029806A9081A0F
:103A400000F1200A600702D524F4803400E0012749
:103A5000574502DDA7EB0A0000E0002000EB0A0159
:103A6000009005984144401A0590E00306D45B4657
:103A70002146179A059800F0B3F90544002706E09F
:103A800001A85A46C05D179990476D1C7F1C474599
:103A9000F6DBE0030CD55B462146179A059800F04B
:103AA0009FF9054404E030205A46179990476D1C51
:103AB0000099481E00900029F5DC08E00298029960
:103AC0005A460078491C0291179990476D1CBAF12B
:103AD0000001AAF1010AF1DC65E1000009280100FA
:103AE0003031323334353637383961626364656674
:103AF0000000000030313233343536373839414236
:103B0000434445460000000000F058F90544761C87
:103B1000307800287FF4ECAD19B02846BDE8F08F6E
:103B2000620700D4062709F1070222F0070CFCE81F
:103B30000223E14603F000485FEA080C02D00FF2CE
:103B4000702C0DE05FEA045C02D50FF2682C07E0F0
:103B50005FEAC47C02D00FF2602C01E0AFF2700C7F
:103B60004FF0FF3823F00043CDF850C065280CD04B
:103B700006DC452809D046281DD047283DD13DE028
:103B8000662818D067287ED138E00021112F01DB8C
:103B9000112000E0781CCDE9000106A90EA8FFF76E
:103BA000DDFCDDE90F010E9A03910021009207F17F
:103BB000010A04914DE04FF000400097CDE901105B
:103BC00006A90EA8FFF7CAFCDDE90F0203920E9BBF
:103BD00011990022DDF80CA00093049211B9791C10
:103BE00000EB010AB7EB0A0004D4C0F1FF3007F183
:103BF000010A0490AAEB0700019044E0012F00DACB
:103C000001270021112F01DD112000E03846CDE908
:103C1000000106A90EA8FFF7A1FCDDE90F010E9A2D
:103C20000391002104910092BA4621070CD4039914
:103C3000514500DA8A46BAF1010F05DD009AAAF172
:103C40000101515C302908D0B84202DA10F1040FAA
:103C500006DA0121CDE9011015E0AAF10101E9E739
:103C6000002805DC049901440491AAEB000102E05C
:103C7000411C514500DD8A460499401A401C0190C0
:103C80004FF000400290200704D40198504501DB1A
:103C9000CDF8048000208DF84F0002980DF14F07F9
:103CA000B0F1004F25D02B200E9002984FF0020863
:103CB00000280CDA404202902D200E9007E00A21E5
:103CC0000298FCF7DBFC3031029007F8011DB8F1D7
:103CD0000001A8F10108F2DC02980028EFD1791E5A
:103CE0000E980870307800F0200040F0450007F88A
:103CF000020D12A8C01B00F107081498007800B14B
:103D0000012000EB0A01019801EBE07105984144A4
:103D1000401A401E0590E00306D45B462146179AE0
:103D2000059800F05DF805441498007818B15A46DB
:103D3000179990476D1CE00324D55B462146179ADE
:103D4000059800F04DF805441CE00498002807DBB6
:103D5000DDE90301884203DD0098405C179901E02A
:103D6000179930205A469047049805F10105401CE8
:103D700004900198401E019004D12E205A461799B4
:103D800090476D1CBAF10001AAF1010ADDDC05E0E3
:103D900017F8010B5A46179990476D1CB8F10001AE
:103DA000A8F10108F4DC5B462146179A0598ABE6BA
:103DB0002D0000002B000000200000002DE9F04144
:103DC000044600251E461746880404D405E03946FB
:103DD0002020B0476D1C641EF9D52846BDE8F0814F
:103DE0002DE9F041044600251E469046C80301D542
:103DF000302700E02027880404D505E041463846F6
:103E0000B0476D1C641EF9D52846BDE8F0810E232D
:103E10000022002100E0491C8142FCDB521C9A4236
:103E2000F7DB70472DE9F047364E0022102130466F
:103E3000FDF767FA1220FDF7FBF80122102130464A
:103E4000FDF75FFA1E20FFF7E2FF00F015F941F2DF
:103E50008838474600E07F1E10213046FDF748FABB
:103E600008B9002FF7DC474600E07F1E10213046DE
:103E7000FDF73EFA08B1002FF7DC0027B1464646B1
:103E800000E0761E10214846FDF732FA08B9002EF0
:103E9000F7DC1C20FFF7BBFF10214846FDF728FA8E
:103EA00028B16D1964416D1C44F1000401E06D19E5
:103EB0006441464600E0761E10214846FDF718FA98
:103EC00008B1002EF7DC7F1C282FD8DB00F0E2F8C9
:103ED000012210214846FDF714FA280E40EA04207A
:103EE00021184FEA154040EA044009184FEA15200E
:103EF00040EA04600918491B11F0FF0F00D00020B0
:103F0000BDE8F0870014014010B50446FFF78AFFB2
:103F1000010EC0F30720C4E9000110BD04490A687E
:103F20005206FCD5024AC1B2121D11607047000052
:103F30000038014010B5FFF7DBFA04480449406837
:103F4000884201DA052010BD062010BD00000020C7
:103F50000000A041074910B5096832200864FFF746
:103F6000C7FA054805494068884201DA052010BDB6
:103F7000062010BD80010020000000200000A041AC
:103F8000074910B5096896200864FFF7B1FA05489B
:103F900005494068884201DA052010BD062010BDA1
:103FA00080010020000000200000A041FDF7BCF9C6
:103FB000FEF74CFFFEF7C0FBFEF762FCFEF76AFD62
:103FC000FEF744FBFEF768FBFEF710FDFEF77EFDF3
:103FD000FEF78CFCFEF7BCFC002205212520FDF736
:103FE0001FFA2520FDF710FA002205211920FDF700
:103FF00017FA1920FDF708FA012216491648FEF7AC
:10400000B9F914490122491C1448FEF7B3F91149C2
:104010006423182208311048FEF792FA0D496423F0
:10402000182208310D48FEF78BFA0D48FDF74EFEB9
:1040300000210C48FEF740F804210A48FEF73CF83E
:104040000C210948FEF738F8FEF74CFB00F039F870
:10405000FEE70000000000200002002040020020D7
:1040600000010020C0010020800100200146002046
:10407000842900D0C81C70471FB510200090002074
:104080000190029069460248FDF73EF81FBD00000E
:10409000001401401FB51020009001200190002065
:1040A00002900220039069460148FDF72DF81FBDDC
:1040B0000014014010B500B9012000F0F1FA002011
:1040C00010BD10B500F012FB002010BD3EB5044637
:1040D0000D46B0F90800FFF7C9FF02A9CDE90001BC
:1040E000208A2B4682B2D4E9001000F0A3FB0128FD
:1040F00001D000203EBD02983EBD00002DE9F041F8
:10410000184C0F460546E6682068001D00F012FABC
:1041100038B9206890F82C1001208840216981432B
:104120002161681C07D137B12168BDE8F0410E4814
:10413000091D00F037BA20683544B5424560216852
:1041400005D2A06BBDE8F041091D00F013BA606B09
:10415000091D00F00FFAA06A854200D2A562BDE8F1
:10416000F0810000400000209C0300202DE9F04178
:10417000054600F023FA2E4CA068401CA060206881
:104180002C4F10B1606940B32DE02560A068012874
:1041900029D1002606EB860007EB800000F0DCF951
:1041A000761C072EF6D323488C3000F0D5F9214831
:1041B000A03000F0D1F91F48B43000F0CDF91D480F
:1041C000C83000F0C9F91B48DC3000F0C5F91948C7
:1041D0008C3060631430A06305E02068E96AC06A2F
:1041E000884200D82560606A401C6062E96A01204C
:1041F000226988401043206101EB810007EB8000B9
:10420000291D00F0CFF900F0F9F9606900280CD001
:104210002068E96AC06A884207D207494FF0805097
:104220000860BFF34F8FBFF36F8FBDE8F0810000D0
:1042300040000020C002002004ED00E070B5114EE7
:10424000114C17E000F086FA3068B8B100F082FB3C
:1042500000F0B4F9F068C568281D00F06BF9A0689B
:10426000401EA0606068401E606000F0C7F92846EC
:1042700000F00CF860680028E4D170BD00F06AFB23
:10428000F8E70000880300204000002010B5044635
:10429000006B00F0C7F92046BDE8104000F0C2B93D
:1042A00010484FF44061420706D0C01D0D4920F070
:1042B0000700411AC1F540610B4A00230144C2E9DD
:1042C00000030839103A21F0070111604B600B60C0
:1042D0000B1AC0E9001393604FF000405360D060A8
:1042E00070470000B00300208C000020074C4FF006
:1042F0008056074DFFF7A2FF20680128FAD92E60EB
:10430000BFF34F8FBFF36F8FF4E70000C0020020B0
:1043100004ED00E02DE9F0479A46DDE90984814685
:104320006FF00303206B03EB82021044089D20F022
:104330000706700707D0502080F31188BFF34F8F16
:10434000BFF36F8FFEE723180A5C83F834200A5C02
:1043500012B1401C1028F6D3002784F84370072DB3
:1043600000D30625E562C4E91157201D00F0FFF8CF
:1043700004F1180000F0FBF82461C5F10700646245
:10438000A061E76484F8507052464946304600F018
:10439000BFF82060B8F1000F01D0C8F80040BDE8B8
:1043A000F087000030B5114900E011460A688242EA
:1043B000FBD34B685C18844203D1406818444860C2
:1043C000084643681C18944209D1084C103C2468E4
:1043D000A24209D052681A4442600A681268026018
:1043E000814200D0086030BD0460F9E78C000020F5
:1043F0000648416B096829B1416BC968C9684968B9
:10440000816270474FF0FF31FAE700004000002062
:1044100008484068401C4FF0500080F3118804D0D9
:10442000BFF34F8FBFF36F8FFEE7BFF34F8FBFF325
:104430006F8FFEE7940000202DE9F041054600272C
:1044400000F088F9314E306808B9FFF729FFF068AD
:1044500005424BD1C5B3083568070ED005F00700FB
:10446000C0F108000544680707D0502080F3118888
:10447000BFF34F8FBFF36F8FFEE72DB37068854298
:1044800034D82248103001460C6801E020460C4622
:104490006168A94202D221680029F7D131688C42B3
:1044A00024D007682168016060680837411B102923
:1044B0000FD96019420708D0502080F31188BFF34C
:1044C0004F8FBFF36F8FFEE710E041606560FFF72D
:1044D00069FF61687068401A7060B268904200D2EB
:1044E000B060F06801430020C4E9000100F032FA36
:1044F000780707D0502080F31188BFF34F8FBFF3A8
:104500006F8FFEE73846BDE8F08100007C00002098
:1045100010B5031F4FF080741C601B1F21F00101B8
:104520001960191F024B0B60143940380A6010BD26
:1045300011440008D0E9013201699A60D0E90123F1
:104540005A604A68824201D182684A600022026150
:104550000868401E0860704700F108014FF0FF3204
:10456000C0E90112C16001610021016070470021B2
:104570000161704730B50B685A1C02D000F1080287
:1045800002E0026904E02246546825689D42FAD997
:1045900053684B6099608A60516008610168491CEA
:1045A000016030BD42684A6093688B6093685960CF
:1045B000916008610168491C01607047502080F3D8
:1045C0001188BFF34F8FBFF36F8F0A494868401CB3
:1045D000486001280CD10848006810F0FF0F07D090
:1045E000502080F31188BFF34F8FBFF36F8FFEE72A
:1045F000704700009400002004ED00E0084948687E
:1046000028B1401E486001D180F3118870475020C6
:1046100080F31188BFF34F8FBFF36F8FFEE7000069
:104620009400002070B5002827D0144DA0F1080494
:104630006168E868014207D1502080F31188BFF318
:104640004F8FBFF36F8FFEE722683AB1502080F39F
:104650001188BFF34F8FBFF36F8FFEE78143616017
:1046600000F078F860686968084468602046FFF7E1
:1046700099FEBDE8704000F06DB970BD7C0000206F
:1046800006484FF47A710068B0FBF1F14FF0E0207A
:10469000491E416107210161704700003C00002074
:1046A00010B5020014D00F48006B38B1502080F3D1
:1046B0001188BFF34F8FBFF36F8FFEE700F04AF80A
:1046C00000211046FFF71AFD00F044F9002807D139
:1046D00005494FF080500860BFF34F8FBFF36F8FD5
:1046E00010BD00004000002004ED00E01CB515489E
:1046F0000024CDE900402346802213A1144800F095
:1047000099F8012809D0401C1AD1502080F3118853
:10471000BFF34F8FBFF36F8FFEE7502080F31188F8
:10472000BFF34F8FBFF36F8F06484FF0FF312C3828
:10473000816201214161C460BDE81C4000F040B8C5
:104740001CBD00006C00002049444C4500000000E6
:10475000ED4200080248016B491C016370470000EC
:10476000400000201448016B11B10121C161704764
:104770000021C1610169B1FA81F1C1F11F0101EBB1
:1047800081020E4951F822306BB101EB820101F137
:1047900008034A6852684A609A4201D152684A60E6
:1047A000D16801607047502080F31188BFF34F8FAC
:1047B000BFF36F8FFEE7000040000020C002002022
:1047C0001CB5194908780190FF20087008788DF809
:1047D00000009DF80000154A00F0500010700720FE
:1047E000906005E09DF800305B008DF80030401EC1
:1047F0009DF800301B06F5D4000200F4E0609060E4
:10480000019808700A48016841F47001016001686C
:1048100041F070410160FFF733FF00205060FBF76B
:10482000A3FC00201CBD000000E400E09400002078
:1048300020ED00E02DE9FF5F8346DDE90E87994614
:1048400016468A469000FFF7F7FD05001AD054205F
:10485000FFF7F2FD040012D025630021CDE90241EB
:10486000CDE900874B46324651465846FFF752FD88
:104870002046FFF77BFC012004B0BDE8F09F2846EE
:10488000FFF7D0FE4FF0FF30F6E700002DE9F041D2
:104890002E4C0027206B40B1A069401CA061E0694C
:1048A00000B101273846BDE8F081E668761CE66075
:1048B00013D1606B006838B1502080F31188BFF3CA
:1048C0004F8FBFF36F8FFEE7606BA16B6163A063D7
:1048D000206A401C2062FFF78BFDA06ADFF8708021
:1048E000864209D3606B006880B1606BC068C568A0
:1048F000686886420DD2A0622068C06A00EB800121
:1049000058F821000128CAD90127C8E74FF0FF3025
:10491000F1E7281DFFF70EFEA86A18B105F118008F
:10492000FFF708FEE86A01212269814011432161F5
:1049300000EB800108EB8100291DFFF733FEE86AD8
:104940002168C96A8842CDD30127CBE74000002007
:10495000C00200202DE9F0472C4D00242746286B8B
:1049600038B1FFF72BFE286B401E2863286B40B13F
:1049700046E0502080F31188BFF34F8FBFF36F8F55
:10498000FEE7A968224E0120D1B3A6F1B409804602
:104990003068E8B1F068C46804F11800FFF7CAFD98
:1049A000201DFFF7C7FDE06A2A6908FA00F11143EC
:1049B000296100EB800109EB8100211DFFF7F2FD69
:1049C000E06A2968C96A8842E2D3C5F81C80DFE73B
:1049D0000CB1FFF70DFDAC6944B14646FFF756FF39
:1049E00000B1EE61641EF9D10020A861E86938B118
:1049F0000849012738070860BFF34F8FBFF36F8F57
:104A0000FFF7FCFD3846BDE8F087000040000020BD
:104A10007403002004ED00E0844A0008752B0008B0
:104A20000000000000000000800000006C4A000848
:104A3000F92B0008000000000000000080000000CA
:104A4000784A0008792C00080000000000000000EF
:104A500080000000000000000000000001020304CC
:104A60000607080900000000010203046D79546183
:104A7000736B3032000000006D795461736B30331A
:104A80000000000064656661756C745461736B00AE
:104A9000B04A000800000020A00000003C350008DB
:104AA000504B0008A0000020101300004C350008F7
:104AB00000000400000000004D722E4875203137C0
:104AC00036353135353136374071712E636F6D00B3
:104AD00000000000000000000000000000000000D6
:104AE00001000000100000000000000000A24A04C5
:104AF00000000000000000000000000000000000B6
:104B000000000000000000000000000000000000A5
:104B10000000000000000000000000000000000095
:104B20000000000000000000000000000000000085
:104B30000000000000000000000000000000000075
:104B40000000000000000000AAAAAAAA00000000BD
:0400000508000131BD
:00000001FF
